:100000000C9463000C948B000C948B000C948B006C
:100010000C948B000C948B000C948B000C941E0C95
:100020000C948B000C948B000C948B000C94D20CD1
:100030000C948B000C948B000C948B000C948B0014
:100040000C9415130C948B000C94A00C0C947A0C4B
:100050000C948B000C948B000C948B000C948B00F4
:100060000C948B000C948B000000000023002600F1
:10007000290000000000240027002A0000000008DA
:10008000000201000003040700000000000000005F
:10009000010204081020408001020408102001021F
:1000A0000408102000000000250028002B00040494
:1000B0000404040404040202020202020303030310
:1000C00003030200E21C11241FBECFEFD8E0DEBF05
:1000D000CDBF12E0A0E0B1E0E8EDF5E402C005908C
:1000E0000D92A43CB107D9F727E0A4ECB2E001C01F
:1000F0001D92A237B207E1F710E0C3E6D0E004C0DA
:100100002197FE010E94701EC236D107C9F70E94D6
:10011000A4130C94EA220C940000CF92DF92EF9289
:10012000FF920F931F93CF93DF936C017A018B01A2
:10013000C0E0D0E0CE15DF0581F0D8016D918D01D2
:10014000D601ED91FC910190F081E02DC601099559
:10015000892B11F02196EECF7E01C701DF91CF915F
:100160001F910F91FF90EF90DF90CF900895089529
:1001700080E090E00895FC01538D448D252F30E000
:10018000842F90E0821B930B541710F0CF960895A4
:1001900001970895FC01918D828D981761F0828DF1
:1001A000DF01A80FB11D5D968C91928D9F5F9F73AB
:1001B000928F90E008958FEF9FEF0895FC01918D4D
:1001C000828D981731F0828DE80FF11D858D90E0BA
:1001D00008958FEF9FEF0895FC01918D228D892F57
:1001E00090E0805C9F4F821B91098F73992708953F
:1001F0008DEC93E00E94EC0021E0892B09F420E0D3
:10020000822F0895FC01848DDF01A80FB11DA35A30
:10021000BF4F2C91848D90E001968F739927848F26
:10022000A689B7892C93A089B1898C918370806449
:100230008C93938D848D981306C00288F389E02DEA
:1002400080818F7D80830895EF92FF920F931F939B
:10025000CF93DF93EC0181E0888F9B8D8C8D981379
:1002600005C0E889F989808185FD26C0F62E0B8DB1
:1002700010E00F5F1F4F0F731127E02E8C8DE812D7
:100280000CC00FB607FCFACFE889F989808185FF99
:10029000F5CFCE010E940201F1CF8B8DFE01E80F58
:1002A000F11DE35AFF4FF0829FB7F8940B8FEA8954
:1002B000FB89808180620AC09FB7F894EE89FF892C
:1002C0006083E889F98980818370806480839FBF1F
:1002D00081E090E0DF91CF911F910F91FF90EF901F
:1002E0000895CF93DF93EC01888D8823C9F0EA89C4
:1002F000FB89808185FD05C0A889B9898C9186FD1F
:100300000FC00FB607FCF5CF808185FFF2CFA8891B
:10031000B9898C9185FFEDCFCE010E940201E7CF14
:10032000DF91CF91089580E090E0892B29F00E9421
:10033000F80081110C94000008958A549D4FFC012F
:100340008081089583E991E0089584EB91E0089518
:10035000FC01848595850895AF92BF92CF92DF927C
:10036000EF92FF920F931F93CF93DF9300D000D0B3
:100370001F92CDB7DEB7643671053CF0FC01EA543C
:10038000FD4F2081222309F477C0DA017B018C0123
:10039000BC01695C7E4FED91FC910190F081E02DF4
:1003A000CA010995680120EDC21A2EEFD20A2FEF7B
:1003B000D6012C93F801EF5CFE4F2EEF208331968F
:1003C0008083319690833196292F280F20952083A2
:1003D0003196E0821696FC9245E050E020E030E055
:1003E000DC011696A417B50734F06191260F311D74
:1003F0004F5F5F4FF7CF7C01B8E0EB0EF11C800F31
:10040000911FFC01E95CFE4F20952083E9E1EE1687
:10041000E1E0FE06BCF45601C5018C199D098E155C
:100420009F056CF5D80112968D919C911397F5015B
:1004300061915F01DC01ED91FC910190F081E02D73
:100440000995EACF83E391E09A83898383E08B83E4
:1004500084EC91E09D838C83D801ED91FC91019017
:10046000F081E02DAE014F5F5F4F67E070E0C801A3
:1004700009958FEF9FEF04C080E090E001C0C701B5
:100480000F900F900F900F900F90DF91CF911F91D1
:100490000F91FF90EF90DF90CF90BF90AF900895B5
:1004A000CF92DF92EF92FF92FC01108211821282B2
:1004B0001382DB0120E030E04D9150E0022E02C0BB
:1004C000440F551F0A94E2F7052E000C660B770BBC
:1004D000C080D180E280F3804C295D296E297F297C
:1004E0004083518362837383285F3F4F20323105FD
:1004F00019F7FF90EF90DF90CF900895CF92DF92A1
:10050000EF92FF9220E030E06A017B01022E04C0EE
:10051000F694E794D794C7940A94D2F7FC01C19259
:10052000CF01285F3F4F2032310571F7FF90EF90E8
:10053000DF90CF900895FB01208130E0FC013383F0
:100540002283FB014181342BFC013383228382E02F
:1005500090E008950F931F93CF93DF938C01EC01EC
:100560002696CE010E949B02D8011A96ED91FC912D
:100570001B97CE01DF91CF911F910F910994FC0140
:100580002281FB012083FC018381FB01818382E0C6
:1005900090E008958DEF91E0089587E091E008954F
:1005A0008EE192E008958FE392E008954F925F927A
:1005B0006F927F928F929F92AF92BF92EF92FF9233
:1005C0000F931F93CF93DF9300D000D0CDB7DEB74A
:1005D0007C018B01FB018191BF01F7018283CE0178
:1005E00001960E94500289819A81AB81BC814C01A5
:1005F0005D01F5E08F0E911CA11CB11CA8014C5FA0
:100600005F4FFA0125E030E02901612C712C48147C
:1006100059046A047B0428F4618161932F5F3F4F82
:10062000F3CFF801E80FF91F1482F70154834383D5
:1006300005960F900F900F900F90DF91CF911F9123
:100640000F91FF90EF90BF90AF909F908F907F9011
:100650006F905F904F90089582E592E0089583E750
:1006600092E008954F925F926F927F928F929F9245
:10067000AF92BF92CF92DF92EF92FF920F931F93B0
:10068000CF93DF93CDB7DEB72C970FB6F894DEBFCC
:100690000FBECDBF7C018B01DB018C9190E0F70197
:1006A0009383828311962C91922B938382836E5F26
:1006B0007F4FCE0101960E94500289809A80AB80C4
:1006C000BC8024013501F6E04F0E511C611C711CE9
:1006D00098012B5F3F4FF90186E090E0AC0160E0AC
:1006E00070E0441555056605770520F44181419376
:1006F0000196F4CFF801E80DF91D1582D701159682
:100700003C932E931497B4016A5F7F4F600F711F63
:10071000CE0105960E945002BAE08B0E911C4D80CE
:100720005E806F807884A401092C000C660B770B27
:10073000440D551D661D771DD801A80DB91DCD01AD
:10074000801B910B5C01C12CD12CA416B506C606EA
:10075000D70628F48D91FD0132978083F0CF5401A4
:10076000A40CB51CB8016A0D7B1DFB0131971082EA
:10077000C4010197800F911FF70197838683CE01F3
:1007800009960E94500295012C5F3F4F89859A85FA
:10079000AB85BC852901032E000C66087708480E3E
:1007A000591E6A1E7B1EF5013396E00FF11FA90149
:1007B0004A01A12CB12C84149504A604B70428F492
:1007C000618161934F5F5F4FF3CF820F931FF801F9
:1007D000E80FF91FDF0111971C9221503109020F18
:1007E000131FD70119961C930E93189721814281EC
:1007F00050E060E070E0BA0155274427522B208179
:10080000422B2381722BF7014287538764877587B8
:1008100004962C960FB6F894DEBF0FBECDBFDF91C5
:10082000CF911F910F91FF90EF90DF90CF90BF90ED
:10083000AF909F908F907F906F905F904F900895B2
:100840008CE892E008958DEA92E00895FC01DB01C6
:100850004C9150E060E070E0428353836483758381
:1008600011968C911197582B42835383648375831F
:1008700012968C911297682B4283538364837583FD
:1008800013968C911397782B4283538364837583DB
:1008900014964C91149750E060E070E046835783C3
:1008A0006087718715968C911597582B46835783CF
:1008B0006087718716968C911697682B46835783AD
:1008C0006087718717968C91782B46835783608752
:1008D000718788E090E00895DC01FB0112968C910D
:1008E0001297808313968C911397818314968C9121
:1008F0001497828315968C911597838316968C9105
:100900001697848317968C911797858318968C91E8
:100910001897868319968C91878388E090E00895D4
:100920000E948421CF92DF92EF92FF920F931F9348
:10093000CF93DF938C017B01EA0160E0FC018081B1
:100940000E94BD0F83E090E00197F1F761E0F801AC
:1009500080810E94BD0F83E290E00197F1F760E093
:10096000F80180810E94BD0FF70180819181992754
:10097000FC01E057FF4F6491FC01E255FF4FE49109
:10098000F0E0EE0FFF1FE859FF4F8591949100E4CE
:1009900012E42FE030E0462F0E945F1361157105CD
:1009A0008105910549F0DC01CB010196A11DB11D26
:1009B000BC01CD019F7003C060E070E0CB0160938B
:1009C000D8027093D9028093DA029093DB02C09030
:1009D000D402D090D502E090D602F090D702C8821F
:1009E000D982EA82FB820E94A11F26E933E44BE010
:1009F0005DE30E94512020E030E040E05FE30E9490
:100A000051200E94691F8B019C010C191D092E09A0
:100A10003F09043611052105310574F46835F2E00B
:100A20007F078105910544F46093D4027093D50249
:100A30008093D6029093D7026091D4027091D50230
:100A40008091D6029091D702DF91CF911F910F91A3
:100A5000FF90EF90DF90CF9008952F923F924F92AA
:100A60005F926F927F928F929F92AF92BF92CF923E
:100A7000DF92EF92FF920F931F93CF93DF93CDB747
:100A8000DEB760970FB6F894DEBF0FBECDBF8C0106
:100A90006B01DB018D909D90AD90BC90FC0182813B
:100AA0009381A481B58188159905AA05BB0570F4C9
:100AB000B401660F771F660F771F828593850E94AA
:100AC000BE20D8011B969C938E931A97F8018282C0
:100AD0009382A482B5829601812C912C540144E02A
:100AE00050E0B8016A5F7F4F2C5F3F4FF801828171
:100AF0009381A481B581FA0134961F018816990665
:100B0000AA06BB0650F5D9011196FC9011971296D2
:100B10008C9190E0A0E0B0E0DC01992788279F2924
:100B2000F901F0808F29F380BF29F801868397832C
:100B3000A087B187DA01A101149782859385A80F58
:100B4000B91F84E0FB0101900D928A95E1F7FFEF58
:100B50008F1A9F0AAF0ABF0AC7CF4601840E951E9F
:100B6000D4018C9111969C91119712964C901297EA
:100B7000512C612C712C320155244424592A482AC5
:100B800013968C91782A5F01F80184859585A68556
:100B9000B78584159505A605B70570F4B201660FF3
:100BA000771F660F771F848995890E94BE20D80120
:100BB00055969C938E935497F80144865586668685
:100BC0007786C401412C512C32019801205F3F4FA0
:100BD000D8011C964D915D916D917C911F97F50107
:100BE0003496441655066606770698F5DC01159688
:100BF000FC90159716964C91169750E060E070E0C7
:100C0000BA01552744275F291496FC9014974F2961
:100C10001796FC907F29D80150964D935D936D9364
:100C20007C9353975F01AC014819590954960D9074
:100C3000BC91A02DA40FB51F44E0F90101900D92C5
:100C40004A95E1F7BFEF4B1A5B0A6B0A7B0A0496E1
:100C5000BFCFD601AA0DBB1D8C9111969C91119707
:100C600012968C901297912CA12CB12C540199249E
:100C70008824992A882A13968C91B82A7F01F80132
:100C800086899789A08DB18D88159905AA05BB0520
:100C900060F4B401660F771F848D958D0E94BE208D
:100CA000D8015D969C938E935C97F801868A978A0B
:100CB000A08EB18E212C312C812C912C54019801C5
:100CC000265E3F4F3A872987F80186899789A08D4C
:100CD000B18D88169906AA06BB0608F05FC0B6015A
:100CE0006E0D7F1DCE0101960E94500297012C5F70
:100CF0003F4F388B2F8749815A816B817C81C90195
:100D0000330FAA0BBB0B2C013D01440E551E661E72
:100D1000771E4B865C866D867E8623E0E20EF11C94
:100D2000F601EE0DFF1D2F853889C901A0E0B0E066
:100D30004B845C846D847E8484159505A605B70577
:100D400028F4A181A1932F5F3F4FEFCF6F84788864
:100D5000460D571DF601E40FF51F31971082C301B0
:100D600001978C0D9D1DD8015B969C938E935A978D
:100D70007A015C96ED91FC915D97E20DF31DA985DA
:100D8000BA858D919C9191838083BFEF8B1A9B0ACA
:100D9000AB0ABB0AE2E02E0E311C96CFC70160966B
:100DA0000FB6F894DEBF0FBECDBFDF91CF911F917C
:100DB0000F91FF90EF90DF90CF90BF90AF909F90FA
:100DC0008F907F906F905F904F903F902F900895FD
:100DD0002F923F924F925F926F927F928F929F924B
:100DE000AF92BF92CF92DF92EF92FF920F931F9339
:100DF000CF93DF93CDB7DEB7A6970FB6F894DEBFDB
:100E00000FBECDBF8C010E94D1124B015C01980135
:100E100025543D4F3E8B2D8BF90180819181A2811C
:100E2000B381A5019401281B390B4A0B5B0BDA0136
:100E3000C901893F9A42A105B10510F0359710828A
:100E4000180144E5241A4DEF340AD1018D919C918B
:100E5000892B79F0F801E154FD4F80819181A281C5
:100E6000B38188159905AA05BB0518F4F101118213
:100E7000108298012C543D4F3A8B298BA801405584
:100E80005D4F5C8B4B8BC8014896988F8F8BD80138
:100E9000AA54BD4FBC8FAB8FF801EC53FD4FFE8FB2
:100EA000ED8F215F3F4F38A32F8F42505109588B50
:100EB0004F8786569D4F9A8F898F1996BAA3A9A3FB
:100EC000A50194012C5E3F4F4F4F5F4F2BA33CA3D6
:100ED0004DA35EA3F80184899589A689B789892BDA
:100EE0008A2B8B2B81F4D80112968D919C911397AC
:100EF000DC01ED91FC910284F385E02D09959C01C4
:100F000097FF14C08FC20E94D112DC01CB01881957
:100F10009909AA09BB09F801C488D588E688F78829
:100F2000C816D906EA06FB06F0F6A3C2A989BA8953
:100F30008D919C911197820F931F8D939C93F1013A
:100F40004081518147305105D9F4A98DBA8D8D91D9
:100F50009C911197AC014F5F5F4F4D935C93F801EB
:100F6000E80FF91F208FEF85F88980819181019723
:100F700091838083892B09F0ADCF88E090E032C067
:100F80004115510539F52F3F310589F481E090E095
:100F9000F101918380832BA13CA14DA15EA1A9A168
:100FA000BAA12D933D934D935C93139793CF0E94D9
:100FB000D112DC01CB0188199909AA09BB0989382A
:100FC0009341A105B10508F485CFF801EA54FD4F1E
:100FD00010824FC241305105A9F42E3F310531F442
:100FE00082E090E0D1018D939C9374CFF101118246
:100FF0001082AB8DBC8D8C9181116CCFC8010E9489
:10100000DD1268CF4230510591F4EF85F8893183C4
:101010002083A98DBA8D1D921C9283E090E0F1018E
:1010200091838083A989BA892D933C9353CF433010
:10103000510569F4322F2227EF85F889808191814B
:10104000280F391F3183208384E090E0CBCF4430D8
:10105000510581F460E071E00E94C51D8F3F91054C
:1010600031F485E090E0F1019183808333CF1182E8
:10107000108230CF4530510571F4EB89FC89318302
:10108000208386E090E0D1018D939C93E989FA89D1
:10109000318320831FCF46305105A9F4322F2227F8
:1010A000AB89BC898D919C911197280F391F2D9385
:1010B0003C9387E090E0F10191838083AF85B8890C
:1010C0008D919C9157CF4830510509F003CFF10124
:1010D0001182108260E071E00E94C51D8F3F910572
:1010E00009F0F8CEAB89BC898D919C91009709F0ED
:1010F000C8C0C8010E94DD1287E291E09A8389830B
:101100001C821B828CEF91E09E838D8398878F8356
:101110009A8789871B861C861D861E866801B8EB08
:10112000CB1ABDEFDB0A7801E6E8EE1AEDEFFE0A16
:1011300028E1422E55245394612C712CD601ED9157
:10114000FC913097A9F1848195819C838B83808168
:1011500091819E838D8382819381DC01ED91FC914D
:101160000480F581E02D099598878F83D601ED9154
:10117000FC9182819381DC01ED91FC910680F781E5
:10118000E02D09959A8789874B865C866D867E86D9
:10119000D601ED91FC9160857185D801ED91FC91AE
:1011A0000190F081E02DAE014F5F5F4FC8010995BE
:1011B000B2E0CB0ED11CEC14FD0409F0BFCF98E1D6
:1011C000492E55245394612C712CF701A081B181D3
:1011D0001097E1F112968D919C9113979C838B83CC
:1011E00014968D919C9115979E838D83ED91FC9122
:1011F00011970480F581E02DCD01099598878F83A3
:10120000D7018D919C91DC01ED91FC910680F781D5
:10121000E02D09959A8789874B865C866D867E8648
:10122000D801ED91FC91C080D180F701808191813E
:10123000DC01ED91FC910280F381E02D0995AE0176
:101240004F5F5F4FBC01C801F6010995F2E0EF0E58
:10125000F11CE214F30409F0B8CFF801EA54FD4F91
:1012600081E08083319680829182A282B382AD89AF
:10127000BE898D929D92AD92BC9213978FEF9FEF96
:10128000FDC08A30910509F0A2C08FE391E09A83F6
:1012900089831B821C821D821E821F8218861986EA
:1012A0001A860E94D112F801C084D184E284F384AA
:1012B0009B01AC012C193D094E095F0969017A01B6
:1012C0006F89788DCE0101960E942604C701B60170
:1012D00028EE33E040E050E00E94D91DCB80DC8056
:1012E000ED80FE80C20ED31EE41EF51ECB82DC8292
:1012F000ED82FE829B01AC0160E472E48FE090E03D
:101300000E94B51DCF80D884E984FA84DC01CB012A
:101310008C0D9D1DAE1DBF1D8F839887A987BA8731
:101320000E94D112CF80D884E984FA8436E3D31A9C
:1013300035E6E30A34ECF30A28EE33E040E050E00F
:101340000E94D91D29013A019B01AC0160E472E4BD
:101350008FE090E00E94B51DA7019601261B370B78
:10136000480B590BCA01B901CB80DC80ED80FE80AF
:1013700031E0C31AD108E108F108A7019601241948
:1013800035094609570929013A0120E03AEC4AE9B2
:101390005BE30E94D91D73016201C20ED31EE41EDD
:1013A000F51ED8011C96CD92DD92ED92FC921F970E
:1013B000F801608B718B828B938B0E94D112AD8967
:1013C000BE896D937D938D939C93139783CD8630C7
:1013D000910559F46F89788D8D8D9E8D0E942D0514
:1013E00081E0EF8DF8A1808375CD8B30910521F4DC
:1013F000AB8DBC8D1C926ECDFC01E752FF4FEE0F02
:10140000FF1FE00FF11F80819181009709F462CDE9
:10141000DC01ED91FC910190F081E02D6F89788DD8
:10142000099558CDF801EA54FD4F8081882321F1B8
:101430007801B9E4EB1ABDEFFB0AF70180819181D5
:10144000A281B381A5019401281B390B4A0B5B0BC8
:10145000DA01C901853C9940A105B10568F0C801D0
:101460000E94DD12D7018D929D92AD92BC9213978E
:1014700003C08EEF9FEF02C080E090E0A6960FB60B
:10148000F894DEBF0FBECDBFDF91CF911F910F91BA
:10149000FF90EF90DF90CF90BF90AF909F908F9094
:1014A0007F906F905F904F903F902F9008954F9254
:1014B0005F926F927F92AF92BF92CF92DF92EF9244
:1014C000FF920F931F93CF93DF93EC018B018A81DF
:1014D000FB0180838B8181838C8182838D818383D7
:1014E000DB0140E050E0BA01E4E0F0E01496CA808D
:1014F000DB80EC80FD80CF0104964C155D056E0508
:101500007F05C8F42A853B85E20FF31F3497D0800E
:10151000F18032812381DC921196FC921197129610
:101520003C93129713962C931397FC014F5F5F4FD8
:101530006F4F7F4FDBCF5F01A00EB11E2C85F501F1
:1015400020832D8521832E8522832F852383D5011A
:1015500040E050E0BA01CC84DD84EE84FF849C013D
:101560002C5F3F4F4C155D056E057F05F8F4CD01EE
:101570008A199B09EC88FD888E0D9F1DFC01D08087
:10158000E180F28083811496DC9214971596EC9298
:1015900015971696FC92169717968C931797C90174
:1015A0004F5F5F4F6F4F7F4F1496D5CFF801E80F15
:1015B000F91F8E8980838F898183888D8283898DAD
:1015C00083837901A12CB12C412C512C32018E89BD
:1015D0009F89A88DB98D481659066A067B0680F545
:1015E000EC8DFD8DEA0DFB1DA081B181FD01019007
:1015F0000020E9F731976F01CA1ADB0AA60160E003
:1016000070E0C8018E0D9F1D0E947E02F4E0EF0E77
:10161000F11CEC8DFD8DEA0DFB1D60817181A60131
:10162000C8018E0D9F1D0E948921EC0CFD1C8FEFBF
:10163000481A580A680A780AE2E0AE0EB11CC7CF11
:10164000C701DF91CF911F910F91FF90EF90DF9035
:10165000CF90BF90AF907F906F905F904F90089524
:10166000EF92FF920F931F93CF93DF938C017B0137
:10167000DC0112962C911297FB012193CF01139656
:10168000ED91FC911497EF0109900020E9F7219763
:10169000CE1BDF0BAE0160E070E00E947E02D8013D
:1016A00013966D917C911497AE01C70105960E9427
:1016B0008921CE010596DF91CF911F910F91FF9067
:1016C000EF900895CF92DF92EF92FF920F931F93C6
:1016D000CF93DF937C018B01DC0112968C911297E2
:1016E000FB01808313968C91139781831496ED915F
:1016F000FC911597EF0109900020E9F72197CE1B87
:10170000DF0BAE0160E070E0C80102960E947E022D
:10171000D70114966D917C911597AE01C80106967C
:101720000E948921CE010696F701A681B781FD01AD
:1017300001900020E9F731976F01CA1ADB0AA60170
:1017400060E070E0800F911F0E947E022A96D70110
:1017500016966D917C911797A601C8018C0F9D1F5D
:101760000E948921CC0DDD1DD7011896ED91FC91C9
:101770001997DF010D900020E9F711976D01CE1A3E
:10178000DF0AA60160E070E0C8018C0F9D1F0E9477
:101790007E022496F70160857185A601C8018C0F31
:1017A0009D1F0E948921C6018C0F9D1FD7011A968B
:1017B0006C911A971B964C911B971C963C911C9709
:1017C0001D962C91F801E80FF91F60834183328345
:1017D00023830496DF91CF911F910F91FF90EF909B
:1017E000DF90CF90089590910001891324C0E2EC1E
:1017F000F0E0E4919FEF90930001E130B9F098F0B0
:10180000E230C9F4909170009D7F9093700091E058
:101810009093B0009091B100987F94609093B10044
:101820001092B30008C010926E0005C090916F0036
:101830009D7F90936F0060E00C94BD0F1F920F92FC
:101840000FB60F9211242F933F934F935F936F9393
:101850007F938F939F93AF93BF93EF93FF93809169
:10186000F7029091F802A091F902B091FA02892B47
:101870008A2B8B2B51F19091F402E091F502F091BB
:10188000F6028081892780838091F7029091F80287
:10189000A091F902B091FA02181619061A061B0651
:1018A000C4F48091F7029091F802A091F902B091EE
:1018B000FA020197A109B1098093F7029093F80207
:1018C000A093F902B093FA0204C0809100010E9433
:1018D000F30BFF91EF91BF91AF919F918F917F910A
:1018E0006F915F914F913F912F910F900FBE0F908D
:1018F0001F9018951F920F920FB60F9211242F93DD
:101900003F934F935F936F937F938F939F93AF9387
:10191000BF93EF93FF938DEC93E00E940201FF9140
:10192000EF91BF91AF919F918F917F916F915F9157
:101930004F913F912F910F900FBE0F901F901895D0
:101940001F920F920FB60F9211242F938F939F9394
:10195000EF93FF93E091DD03F091DE038081E0914E
:10196000E303F091E40382FD12C090818091E603CD
:101970008F5F8F732091E703821751F0E091E603A8
:10198000F0E0E353FC4F958F8093E60301C0808124
:10199000FF91EF919F918F912F910F900FBE0F901C
:1019A0001F9018951F920F920FB60F9211242F932C
:1019B0003F934F935F936F937F938F939F93AF93D7
:1019C000BF93CF93DF93EF93FF932091FC0230E01E
:1019D000F901E458FF4F8491F901E057FF4FD4918A
:1019E000F901E255FF4FC491CC2379F081110E9497
:1019F000940FEC2FF0E0EE0FFF1FE859FF4FA59179
:101A0000B491EC91ED2381E009F480E02091000392
:101A1000309101032F5F3F4F309301032093000368
:101A20009091FF02953618F096E09093FB0290910A
:101A3000FB029430C9F128F4923069F09330D1F070
:101A40005EC0953009F451C0963009F058C091E05D
:101A50009093CC0351C0811152C02091000330916A
:101A600001032436310508F442C01092CC031092D1
:101A7000FF021CC0813009F042C0E091FF0291E0FA
:101A80009E0F9093FF02F0E020910003309101033C
:101A9000EE0FFF1FE550FD4F3087278310920103A3
:101AA0001092000394E029C0811117C0E091FF0259
:101AB00091E09E0F9093FF02F0E02091000330919F
:101AC0000103EE0FFF1FE550FD4F30872783109273
:101AD00001031092000393E010C0209100033091A5
:101AE00001032536310558F007C0811108C0109256
:101AF00001031092000303C095E09093FB029091C4
:101B0000FE029923B9F081110AC08091FD02882359
:101B100021F08091FD0261E009C02D9A0BC08091F7
:101B2000FD02882331F08091FD0260E00E94BD0F2C
:101B300001C02D98FF91EF91DF91CF91BF91AF91AF
:101B40009F918F917F916F915F914F913F912F91D5
:101B50000F900FBE0F901F901895CF92DF92EF92CB
:101B6000FF92CF93DF93EC01072E000C880B990BAB
:101B70000E94A11F6B017C0120E030E040E45FE3A4
:101B80000E94512020E030E048E452E40E94F71E19
:101B90000E94691FC617D707D4F020E030E040EA62
:101BA0005FE3C701B6010E94512020E030E048E425
:101BB00052E40E94F71E20E030E040E85FE30E941C
:101BC000861E0E94691F21E06C177D070CF420E03F
:101BD000822F90E0DF91CF91FF90EF90DF90CF9038
:101BE0000895CF92DF92EF92FF920F931F93CF93BE
:101BF000DF9300D000D0CDB7DEB78CE090E09C83BF
:101C00008B838DE090E09A83898344EC52E0BE019F
:101C10006D5F7F4FCE0101960E9492046093C402D3
:101C20007093C5028093C6029093C70286E090E04D
:101C30009C838B8380E190E09A83898340EE52E01D
:101C4000BE016D5F7F4FCE0101960E9492046093AA
:101C5000E0027093E1028093E2029093E30283E05A
:101C600090E09C838B8385E090E09A8389834CEDA0
:101C700052E0BE016D5F7F4FCE0101960E9492043B
:101C80006093DC027093DD028093DE029093DF02AA
:101C9000C090E002D090E102E090E202F090E30216
:101CA0006C157D058E059F051CF48B019C0102C0FF
:101CB00097018601002737FD039511272227332737
:101CC00001110AC0DC01CB01C816D906EA06FB06E1
:101CD00034F4D701C60103C080E090E0DC018093BA
:101CE000C8029093C902A093CA02B093CB020F908E
:101CF0000F900F900F90DF91CF911F910F91FF9058
:101D0000EF90DF90CF90089560E08AE00E94BD0FD1
:101D100060E089E00C94BD0F6FEF70E089E00E94F5
:101D2000381261E088E00E94BD0F60E087E00E9409
:101D3000BD0F64E670E080E090E00E94971261E0E1
:101D40008AE00E94BD0F61E082E00E94BD0F60E06A
:101D500084E00C94BD0F6FEF70E089E00E943812B0
:101D600060E088E00E94BD0F61E087E00E94BD0F47
:101D700064E670E080E090E00E94971261E08AE003
:101D80000E94BD0F61E082E00E94BD0F60E084E030
:101D90000C94BD0F6FEF70E08AE00E94381260E093
:101DA00082E00E94BD0F61E084E00C94BD0F6FEFF4
:101DB00070E08AE00E94381261E082E00E94BD0F6C
:101DC00060E084E00C94BD0FFC018281938181303E
:101DD000910511F40C94D70E8230910511F40C94F6
:101DE0008C0E039711F40C94AB0E0C94840E3FB739
:101DF000F8948091600790916107A0916207B0917B
:101E0000630726B5A89B05C02F3F19F00196A11DB9
:101E1000B11D3FBFBA2FA92F982F8827820F911D80
:101E2000A11DB11DBC01CD0142E0660F771F881FC7
:101E3000991F4A95D1F708958F929F92AF92BF92C2
:101E4000CF92DF92EF92FF920F931F93CF93DF9386
:101E5000FC0120813181E091F002F091F1022E1716
:101E60003F070CF04FC0F901EE0FFF1FA091EE02EB
:101E7000B091EF02EA0FFB1FA080B18021703327E1
:101E80006901F1E0CF26232B19F42CE93FEF02C0C2
:101E900024E630E07A018B01EC014901840E951EA5
:101EA000B401C5010E94AD0D892B99F48E0C9F1CC5
:101EB000B401C5010E94AD0D892B71F4B701680D05
:101EC000791DC5010E94AD0D892BF9F023E030E0AA
:101ED00005C021E030E002C022E030E0F80180815E
:101EE00091810196821793071CF49183808308C027
:101EF000F8011182108288819981019699838883E3
:101F0000C60105C081E090E002C08FEF9FEFDF9136
:101F1000CF911F910F91FF90EF90DF90CF90BF90E6
:101F2000AF909F908F900895833081F028F4813096
:101F300099F08230A1F008958730A9F08830B9F087
:101F40008430D1F4809180008F7D03C08091800027
:101F50008F7780938000089584B58F7702C084B511
:101F60008F7D84BD08958091B0008F7703C08091EC
:101F7000B0008F7D8093B00008951F93CF93DF93BF
:101F8000282F30E0F901E458FF4F8491F901E05720
:101F9000FF4FD491F901E255FF4FC491CC23C1F01A
:101FA000162F81110E94940FEC2FF0E0EE0FFF1F0F
:101FB000EC55FF4FA591B4919FB7F894111104C04F
:101FC0008C91D095D82302C0EC91DE2BDC939FBF7F
:101FD000DF91CF911F910895CF93DF9390E0FC01A3
:101FE000E057FF4F2491FC01E255FF4F8491882375
:101FF00061F190E0880F991FFC01EE58FF4FC591E9
:10200000D491FC01EC55FF4FA591B491611109C029
:102010009FB7F8948881209582238883EC912E23A2
:102020000BC0623061F49FB7F8948881322F3095ED
:1020300083238883EC912E2B2C939FBF06C08FB7F0
:10204000F894E8812E2B28838FBFDF91CF910895DC
:102050008F929F92AF92BF92CF92DF92EF92FF92B8
:102060001F93CF93DF93EC01809100018F3021F01B
:102070008F3F09F0F1C104C0E2ECF0E014916FC0B1
:102080008FE080930001E2ECF0E014911F3F09F42F
:10209000E3C1113009F440C030F1123009F05FC0E3
:1020A0001092B0001092B1008091B00082608093D5
:1020B000B0008091B10081608093B100EDEBF0E061
:1020C000E491F0E0EE0FFF1FEC55FF4F85919491E6
:1020D0009093F6028093F502EFE9F0E0E491E0934B
:1020E000F40212E0B4C114BC15BC84B5826084BD96
:1020F00085B5816085BDEDEBF0E0E491F0E0EE0F99
:10210000FF1FEC55FF4F85919491EFE9F0E0E491CA
:10211000E093650710E09BC110928000109281004F
:10212000809181008860809381008091810081602E
:1021300080938100EDEBF0E0E491F0E0EE0FFF1F03
:10214000EC55FF4F85919491EFE9F0E0E491E09335
:10215000640761E08FE00E94EC0F11E0A5C017FD5D
:102160007BC161E08FE00E94EC0F812F8D7F09F031
:102170009BC06E01E12CF12C60E072E18AE790E0F7
:10218000A70196010E94FB1D49015A01BA01A9014C
:1021900041505109610971094F3F510561057105B0
:1021A00009F008F445C060E472E48FE090E0A70114
:1021B00096010E94FB1DBA01A90141505109610914
:1021C00071091230E9F44F3F51056105710509F0BD
:1021D00008F4DDC060E970ED83E090E0A7019601AE
:1021E0000E94FB1DBA01A901415051096109710901
:1021F0004F3F51056105710509F020F583E04DC0A1
:102200004F3F510561057105A9F0A0F068E478EE33
:1022100081E090E0A70196010E94FB1DBA01A9018F
:102220004150510961097109112309F4E1C0D8C075
:1022300081E001C082E0111130C095B5987F892BF3
:1022400085BD69C068E478EE81E090E0A701960161
:102250000E94FB1DBA01A901415051096109710990
:102260004F3F51056105710509F008F48EC064E225
:1022700074EF80E090E0A70196010E94FB1DBA0177
:10228000A90141505109610971094F3F510561058B
:10229000710511F008F07DC085E09091B100987F44
:1022A000892B8093B10031C06E01E12CF12C60E0EC
:1022B00072E18AE790E0A70196010E94FB1DBA0136
:1022C000A90141505109610971094115510581E088
:1022D0006807710580F068E478EE81E090E0A7017E
:1022E00096010E94FB1DBA01A901415051096109E3
:1022F000710983E001C081E0113039F490918100CF
:10230000987F892B8093810018C01130B1F0123072
:1023100049F11111A1C047BD8FEF9FEFDC01809300
:102320006A0790936B07A0936C07B0936D07809139
:102330006E00826080936E008FC05093890040933E
:1023400088008FEF9FEFDC0180936607909367070B
:10235000A0936807B093690780916F0082608093B3
:102360006F007AC04093B3008FEF9FEFDC01809342
:10237000F7029093F802A093F902B093FA028091C9
:10238000700082608093700067C084E086CF82E036
:1023900084CF62E17AE780E090E0A70196010E9495
:1023A000FB1DBA01A90141505109610971094F3F53
:1023B00051056105710591F088F0D501C4012AE04D
:1023C000B595A795979587952A95D1F7AC01BD014D
:1023D000415051096109710987E05FCF86E05DCF07
:1023E0004F3F51056105710509F098F684E023CF50
:1023F0004F3F51056105710541F138F162E17AE71E
:1024000080E090E0A70196010E94FB1DBA01A9019E
:1024100041505109610971094F3F5105610571052D
:1024200091F088F0D501C4013AE0B595A79597954C
:1024300087953A95D1F7AC01BD0141505109610929
:10244000710985E0FACE84E0F8CE83E0F6CE61E053
:102450008FE00E94EC0F8DCEDF91CF911F91FF9006
:10246000EF90DF90CF90BF90AF909F908F900895A6
:102470001F93CF93DF93182FEB0161E00E94EC0FC5
:10248000209711F460E004C0CF3FD10539F461E03A
:10249000812FDF91CF911F910C94BD0FE12FF0E0C0
:1024A000E458FF4FE491E330F9F048F4E130B9F03B
:1024B000E230A1F584B5806284BDC8BD34C0E73088
:1024C000E9F0E83019F1E43049F58091800080624C
:1024D00080938000D0938B00C0938A0024C084B581
:1024E000806884BDC7BD1FC08091800080688093D4
:1024F0008000D0938900C093880015C08091B000FF
:1025000080688093B000C093B3000DC08091B0008C
:1025100080628093B000C093B40005C0C038D1057C
:102520000CF0B5CFAFCFDF91CF911F9108958F926F
:102530009F92AF92BF92CF92DF92EF92FF926B0188
:102540007C010E94F70E4B015C01C114D104E1042F
:10255000F104F1F00E94F70EDC01CB018819990912
:10256000AA09BB09883E9340A105B10570F321E09B
:10257000C21AD108E108F10888EE880E83E0981E9F
:10258000A11CB11CC114D104E104F10419F7DDCF81
:10259000FF90EF90DF90CF90BF90AF909F908F9083
:1025A00008952FB7F89460915C0770915D07809152
:1025B0005E0790915F072FBF08950F931F93CF93EE
:1025C000DF93CDB7DEB72A970FB6F894DEBF0FBE04
:1025D000CDBF8C018FE391E09A8389831B821C829B
:1025E0001D821E821F82188619861A86D801ED91D7
:1025F000FC910190F081E02DAE014F5F5F4F6AE0EA
:1026000070E0C80109950E94D112F80160877187B6
:10261000828793872A960FB6F894DEBF0FBECDBF90
:10262000DF91CF911F910F9108951F920F920FB6D6
:102630000F9211242F933F938F939F93AF93BF9348
:1026400080915C0790915D07A0915E07B0915F0754
:1026500030915B0723E0230F2D3720F40196A11D55
:10266000B11D05C026E8230F0296A11DB11D2093C0
:102670005B0780935C0790935D07A0935E07B09320
:102680005F078091600790916107A0916207B09108
:1026900063070196A11DB11D8093600790936107A8
:1026A000A0936207B0936307BF91AF919F918F9101
:1026B0003F912F910F900FBE0F901F901895CF92C2
:1026C000DF92EF92FF920F931F93E82FF92F05C02F
:1026D000015011092109310961F190819623941764
:1026E000B9F305C0015011092109310911F1908197
:1026F00096239413F7CFC12CD12CE12CF12C0AC0D6
:102700008FEFC81AD80AE80AF80A0C151D052E051D
:102710003F0579F080818623841791F36C2D7D2D00
:102720008E2D9F2D1F910F91FF90EF90DF90CF90F6
:10273000089560E070E080E090E01F910F91FF90BD
:10274000EF90DF90CF900895CF93DF93CDB7DEB7B2
:102750002C970FB6F894DEBF0FBECDBF789484B52A
:10276000826084BD84B5816084BD85B5826085BD8D
:1027700085B5816085BD80916E00816080936E001B
:10278000109281008091810082608093810080910D
:1027900081008160809381008091800081608093BE
:1027A00080008091B10084608093B1008091B0007E
:1027B00081608093B00080917A00846080937A0079
:1027C00080917A00826080937A0080917A008160A3
:1027D00080937A0080917A00806880937A001092CA
:1027E000C100C0907D04D0907E04E0907F04F09002
:1027F000800400917B0410917C0460E079E08DE31B
:1028000090E0A70196010E94D91DDA01C901019744
:10281000A109B109B695A795979587959C01D8010F
:102820005096ED91FC91519782E08083C114B1EEF6
:10283000DB06E104F10421F02115E0E13E07C0F0E0
:10284000D8015096ED91FC915197108260E874E8A0
:102850008EE190E0A70196010E94D91DDA01C9011D
:102860000197A109B109B695A795979587959C0100
:10287000D8011C96ED91FC911D9730831E96ED9129
:10288000FC911F97208358961C9258975496ED916F
:10289000FC91559786E080835296ED91FC91539779
:1028A0008081806180835296ED91FC915397808165
:1028B000886080835296ED91FC9153978081806867
:1028C00080835296ED91FC91539780818F7D808318
:1028D00010922607109225071092280710922707BA
:1028E00010922C0710922B0710922A07109229079A
:1028F000E3EFF6E080E090E021913191232B81F429
:10290000FC01EE0FFF1FED50F94F2AE634E0318352
:1029100020838C599F4F90936D0480936C0404C066
:1029200001968931910541F761E082E00E94EC0F48
:1029300061E084E00E94EC0F61E08AE00E94EC0F0D
:1029400061E089E00E94EC0F61E088E00E94EC0FFA
:1029500061E087E00E94EC0F61E08FE00E94EC0FE5
:1029600061E08DE00E94EC0F61E080E10E94EC0FDD
:1029700061E085E00E94EC0F60E08CE00E94EC0FCB
:1029800060E086E00E94EC0F60E083E00E94EC0FC4
:102990008FE00E94F30B0E94840EF8941092800046
:1029A00089E08093810080E293E090938900809396
:1029B0008800109285001092840082E080936F005E
:1029C00078948093FB021092FF028091FC0260E0F9
:1029D0000E94EC0F10E2212E312C44244A94542CF6
:1029E000320189E794E00E94E80664E070E080E04C
:1029F00090E00E9497120E94F10D8DEC93E00E94EE
:102A0000EC00892BE9F08DEC93E00E94CA008C3633
:102A100091F03CF4823661F0863691F40E94D70E34
:102A20000FC0823759F0833759F40E94840E08C0D2
:102A30000E94CA0E05C00E94AB0E02C00E948C0EFE
:102A4000E2E0F3E0F093EF02E093EE028091FF0208
:102A500090E09093F1028093F0028091CC0390E09B
:102A60009093F3028093F2028091FB02853009F08B
:102A700035C18091040390910503885891098D35E3
:102A8000910588F48091FF02843041F4809106031F
:102A9000909107038097479708F4DAC18091FF026D
:102AA000843408F060C08091FF028A3108F410C2BB
:102AB0008091020390910303843F914068F4109247
:102AC000ED021092EC024092E8025092E90260920C
:102AD000EA027092EB0244C08091040390910503D6
:102AE00085974B9708F0F4C1E8E0F3E082E090E0CE
:102AF000C12CD12C7601AC014F5F5F4F2091FF02BA
:102B000030E0421753075CF4DF0112972D913C919E
:102B1000275031092730310508F4BEC1CA01019799
:102B2000959587959093ED028093EC020C972CF489
:102B30001092ED021092EC02CBC1C092E802D0924A
:102B4000E902E092EA02F092EB0284E090E046C0F3
:102B5000C092E802D092E902E092EA02F092EB021F
:102B60008BE090E03BC08091060390910703825474
:102B700091098E9708F097CF80E090E040E050E018
:102B8000BA01FC01E85FFC4F2081318129503109F5
:102B90002930310508F087CFFC01E65FFC4F20812A
:102BA0003181275131092231310508F068C1440FC4
:102BB000551F661F771F416004968038910509F7FD
:102BC0003092ED022092EC024093E8025093E90229
:102BD0006093EA027093EB0283E090E09093E50249
:102BE0008093E4020E94D1126093D0027093D102CC
:102BF0008093D2029093D3028091E8029091E902EF
:102C0000A091EA02B091EB028093CC029093CD02A6
:102C1000A093CE02B093CF0222E02093FB02109249
:102C2000FF02873538EA93073FEFA307B10509F4A0
:102C300044C0E0F48D3FF2E09F07FFEFAF07B1051E
:102C400009F444C030F48B3B9D41A145B10591F19D
:102C500066C08D3DE2E29E07EFEFAE07B10581F160
:102C60008D399246AF4FB10529F159C08F3124ED0E
:102C7000920723EAA20722E5B20711F168F48D3327
:102C8000E2EC9E07EFEFAE07B105E9F08B3B9D4408
:102C9000AE4FB042C1F043C08B3D2DEE920728EC01
:102CA000A20723EAB20749F08B319B44A84EB74DE7
:102CB00069F035C00E94D70E32C00E94CA0E2FC0E4
:102CC0000E94AB0E2CC00E948C0E29C00E94840E64
:102CD00026C082E08093FB021092FF020E94D11274
:102CE0000091D0021091D1022091D2023091D302F2
:102CF000DC01CB01801B910BA20BB30B853F9140F4
:102D0000A105B10560F00E94840E0E94D11260936B
:102D1000D0027093D1028093D2029093D30280911B
:102D2000C8029091C902A091CA02B091CB02069745
:102D3000A109B1094897A105B10508F074C00E9426
:102D4000840E8091C8029091C902A091CA02B091EC
:102D5000CB020697A109B1094897A105B105F8F67C
:102D600088EE93E00E94281068EE73E080E090E027
:102D70000E9497128FE00E94F30B0E94CA0E6AEF26
:102D800070E080E090E00E9497120E94F10D809127
:102D9000C8029091C902A091CA02B091CB02849757
:102DA000A105B1050CF0BBCF64EC79E080E090E0C8
:102DB0000E949712C6CF8CE291E00E94281068EE24
:102DC00073E080E090E00E9497128FE00E94F30B86
:102DD0000E94D70E6AEF70E080E090E00E949712A8
:102DE0000E94F10D8091C4029091C502A091C6028B
:102DF000B091C7028497A105B105ACF464EC79E009
:102E000080E090E00E9497128091C4029091C502E8
:102E1000A091C602B091C7020697A109B1094897CF
:102E2000A105B10540F28091C4029091C502A09124
:102E3000C602B091C7020697A109B1094897A1053A
:102E4000B10518F40E94840EDFCF0E949301C9CD12
:102E500080910803909109030997099708F01ECE05
:102E60001092ED021092EC024092E8025092E902B8
:102E70006092EA027092EB0223E030E09EC520816E
:102E80003181265031092730310508F00CCE440F2E
:102E9000551F661F771F90CE208131812351310944
:102EA0002F30310570F0208131812A5031092930CD
:102EB000310570F4CC0CDD1CEE1CFF1C0296349620
:102EC0001ACECC0CDD1CEE1CFF1C6894C0F8F6CFAB
:102ED0008091FF028A3108F45AC0809102039091D8
:102EE00003038032934008F4EACD8091040390916B
:102EF0000503C697869708F04AC080910603909113
:102F00000703C697869708F042C0EAE0F3E023E0A3
:102F100030E0C12CD12C7601C90101964091FF020D
:102F200050E08417950754F4DF0112974D915C919E
:102F30004C5051094B30510588F001C0C90101972F
:102F4000959587959093ED028093EC020C970CF089
:102F5000FFCD1092ED021092EC0219C08081918198
:102F600085974B9750F4CC0CDD1CEE1CFF1C68942D
:102F7000C0F82E5F3F4F3496CFCF808191810C9760
:102F80000A9728F4CC0CDD1CEE1CFF1CF2CF8091BC
:102F9000FF02823208F458C0809104039091050327
:102FA0000697079708F050C0E8E0F3E082E090E071
:102FB000C12CD12C76019C012F5F3F4F4091FF0225
:102FC00050E024173507CCF4DF0112974D915C9146
:102FD00011974E5151094731510540F5CC0CDD1C7C
:102FE000EE1CFF1C6894C0F8408151813496435018
:102FF00051094530510530F1C901019795958795E3
:103000009093ED028093EC0240972CF41092ED0225
:103010001092EC0219C0C092E802D092E902E0924C
:10302000EA02F092EB028CE090E0D8CD4D915C91F9
:103030004C5051094B30510538F4CC0CDD1CEE1CC2
:10304000FF1CD2CF0296B7CF1C821B8281E090E09A
:103050009A8389838091FF028D3078F41C821B82D1
:10306000E1E0F0E0FA83E9838091F0029091F102CF
:10307000181619060CF46CC0C3C049E753E0BE0132
:103080006D5F7F4FCE0101960E941C0F892B31F797
:1030900049E753E0BE016D5F7F4FCE0101960E946C
:1030A0001C0F0197D9F649E753E0BE016D5F7F4FD2
:1030B000CE0101960E941C0F892B81F6812C912C48
:1030C000540100E010E08091FF0290E029813A81F4
:1030D0002817390774F549E753E0BE016D5F7F4F4C
:1030E000CE0101960E941C0F7C0149E753E0BE010E
:1030F0006D5F7F4FCE0101960E941C0FF1E0EF162D
:10310000F10451F4892B09F0A9CF880C991CAA1C51
:10311000BB1C689480F80AC0EF2809F09FCF019784
:1031200009F09CCF880C991CAA1CBB1C0F5F1F4F79
:10313000CACF1093ED020093EC028092E8029092C5
:10314000E902A092EA02B092EB0221E030E035C43D
:10315000E091EE02F091EF0282E090E09A838983A1
:103160008281938189974E9708F04AC0A3E0B0E02E
:10317000BA83A983848195810B970A9708F040C090
:103180004CEB51E0BE016D5F7F4FCE0101960E9476
:103190001C0F892BA9F54CEB51E0BE016D5F7F4FF1
:1031A000CE0101960E941C0F019751F5812C912CA4
:1031B000540100E010E02091F0023091F102898189
:1031C0009A81821793070CF026C14CEB51E0BE01A7
:1031D0006D5F7F4FCE0101960E941C0F7C01033072
:1031E000110509F0E2C04CEB51E0BE016D5F7F4F6D
:1031F000CE0101960E941C0FE816F90609F4D5C00D
:10320000E091EE02F091EF0282819381C69786975A
:10321000E0F4848195814B974597B8F4DF011696C9
:103220007F0126ECE20EF11C20E030E040E050E0AF
:1032300060E070E080E090E00D911C9111970950E2
:1032400011090830110508F4F5C08091FF02893397
:1032500070F182819381895791098335910508F432
:1032600025C125C0D90112966D917C9113976651A5
:1032700071096131710508F045C1D701C601880F98
:10328000991FAA1FBB1F6C017D016894C0F84E5F97
:103290005F4F2C5F3F4F4B33510509F416C1D901E5
:1032A0006D917C916A50710969307105D8F28091F5
:1032B000FF02823231F4828193810A97099708F4E0
:1032C00031C1828193818957910983359105D0F469
:1032D0008091FF028132B0F084819581CA978997ED
:1032E00088F49F012A5F3F4FC12CD12C760143E027
:1032F00050E0D9016D917C916A5071096930710576
:1033000008F42CC1828193818C549109C59778F47B
:103310008091FF02843031F48481958180974797B2
:1033200008F47CC18091FF02843408F05EC1809172
:10333000FF02863460F1828193810C970B9708F429
:10334000BCC125C0D90112966D917C9113976E5125
:1033500071096731710508F0CBC1D701C601880F2B
:10336000991FAA1FBB1F6C017D016894C0F84E5FB6
:103370005F4F2C5F3F4F4534510509F4C8C1D90157
:103380006D917C916C5071096B307105D8F2809110
:10339000FF02883508F42EC28281938185589109F5
:1033A0008B35910508F4CEC125C24CEB51E0BE012E
:1033B0006D5F7F4FCE0101960E941C0F6C010330A0
:1033C000110569F44CEB51E0BE016D5F7F4FCE01FA
:1033D00001960E941C0FC816D90609F011CFE114FE
:1033E000F10459F4CA94CD2809F00ACF880C991C2D
:1033F000AA1CBB1C689480F80BC0EA94EF2809F063
:10340000FFCECD2809F0FCCE880C991CAA1CBB1C51
:103410000F5F1F4FD0CE1093ED020093EC0280920D
:10342000E8029092E902A092EA02B092EB0282E0F6
:1034300090E0D4CB12960D911C9113970151110974
:103440000D30110528F501E00E94251E216014961B
:10345000AE15BF0509F0F0CE2093E8023093E902E3
:103460004093EA025093EB0200E20E94401E209338
:10347000E6023093E702A5E0B0E0B093E502A09346
:10348000E402E0E3F0E0F093ED02E093EC02AACB7B
:1034900012960D911C9113970450110905301105D6
:1034A00008F0D3CE01E00E94251ED1CF8481958102
:1034B000CA97899708F0FBCE9F012A5F3F4FC12C26
:1034C000D12C760143E050E0EACE9F012A583F4FCD
:1034D000D9012D913C912A5031092930310508F04C
:1034E000E6CE2CE130E03093ED022093EC02C09266
:1034F000E802D092E902E092EA02F092EB028AE05E
:1035000090E06CCBD90112966D917C911397665027
:1035100071096730710508F0CACECC0CDD1CEE1CB9
:10352000FF1CB5CE2091FF02CF01820F911D820FAB
:10353000911DDC0112978D919C910A97099708F0D3
:10354000C0CE1092ED021092EC024092E80250922E
:10355000E9026092EA027092EB022DC2D901129642
:103560006D917C911397665171096131710568F510
:10357000D701C601880F991FAA1FBB1F6C017D01CF
:103580006894C0F84E5F5F4F2C5F3F4F4332510548
:1035900009F0AFCE9F012A5B3F4FD9012D913C919D
:1035A0002A5031092930310508F0ACCEE0E1F0E0D5
:1035B000F093ED02E093EC02C092E802D092E902AF
:1035C000E092EA02F092EB02F6C1D90112966D91F7
:1035D0007C911397665071096730710508F092CE9F
:1035E000CC0CDD1CEE1CFF1CCDCF84819581895451
:1035F0009109C39708F09BCE9F012A5F3F4FBF01FF
:103600006A577F4FC12CD12C7601D9014D915C9125
:103610004950510949305105A0F089CE86819781E2
:103620000997099708F07ECE1092ED021092EC02F5
:103630004092E8025092E9026092EA027092EB0234
:1036400025C0D90112964D915C91139746515109AD
:103650004131510510F5D701C601880F991FAA1FE6
:10366000BB1F6C017D016894C0F82C5F3F4F26178B
:10367000370759F63092ED022092EC02C092E80230
:10368000D092E902E092EA02F092EB02E7E0F0E089
:10369000F093E502E093E402A5CAD90112964D9198
:1036A0005C911397465051094730510508F03FCEC1
:1036B000CC0CDD1CEE1CFF1CD8CF848195810997B2
:1036C000099708F064CE868197818C974F9708F010
:1036D0005ECE8085918589974D9708F058CE9F01E1
:1036E000265F3F4FC12CD12C760145E050E047CEFC
:1036F00012966D917C91139769507109693071052B
:1037000008F045CECC0CDD1CEE1CFF1C30CE9F011A
:1037100026573F4FD9012D913C912C5031092B3028
:10372000310508F034CE3092ED022092EC02C092C6
:10373000E802D092E902E092EA02F092EB0288E01D
:1037400090E04CCA84819581825491098E9708F04B
:1037500051C08F01045C1F4F8DE190E020E030E00C
:103760004091FF0250E04450510984179507ACF492
:10377000A80142505109DA014D915C91495051091B
:103780004830510510F136C0D8014D915C91485137
:1037900051094231510558F1CB0101979595879513
:1037A0009093ED028093EC028A9724F1C901330FC4
:1037B000AA0BBB0B8093E8029093E902A093EA0264
:1037C000B093EB0289E090E009CABC016F5F7F4FC4
:1037D000D8014D915C914750510947305105A0F6F1
:1037E000220F331F216002960C5F1F4FB9CF220FAB
:1037F000331FF9CF8091FF028032E1F482819381FF
:1038000006970697B8F4848195810997099790F4F3
:103810009F012A5F3F4FBF01625C7F4FC12CD12CBB
:103820007601D9014D915C914650510946305105C0
:1038300008F486C02091F0023091F10238872F837E
:10384000263031050CF445CA8F010E5F1F4F95ECF1
:10385000C92E9DE9D92E9CE1E92E91E8F92E83E04D
:1038600090E09E838D83D80114966D917C9115977D
:10387000AD90BC9080E090E00E949F1F69877A879E
:103880008B879C87B50180E090E00E949F1F4B01D1
:103890005C012DEC3CEC4CE45FE30E9451209B0169
:1038A000AC0169857A858B859C850E94F21E87FD17
:1038B00019C02DEC3CEC4CE45FE369857A858B857F
:1038C0009C850E9451209B01AC01C501B4010E945E
:1038D000F21EE82F880FFF0BEE27FF0FEE1FFF27CA
:1038E000319602C0E0E0F0E0A701960163E971E0E3
:1038F00080E091E00E94B51D6F01FF0FEE08FF0808
:10390000C626D726E826F926ED81FE813196FE836C
:10391000ED830E5F1F4F2F813885E217F30709F003
:10392000A2CFC092E802D092E902E092EA02F092BD
:10393000EB023092ED022092EC028FEF9FEF4EC926
:10394000D90112964D915C91139749515109433118
:10395000510508F5D701C601880F991FAA1FBB1F83
:103960006C017D016894C0F82C5F3F4F2617370724
:1039700009F057CF2EE030E03093ED022093EC02B7
:10398000C092E802D092E902E092EA02F092EB02E1
:103990008FE090E023C9D90112964D915C91139765
:1039A000495051094930510508F044CFCC0CDD1C79
:1039B000EE1CFF1CD9CF26E030E03093E5022093C7
:1039C000E40210C91092D0031092CF0388EE93E066
:1039D000A0E0B0E08093D1039093D203A093D303EF
:1039E000B093D4038BE491E09093CE038093CD0306
:1039F00085EC90E09093DA038093D90384EC90E017
:103A00009093DC038093DB0380EC90E09093DE03E3
:103A10008093DD0381EC90E09093E0038093DF03DB
:103A200082EC90E09093E2038093E10386EC90E0D7
:103A30009093E4038093E3031092E6031092E7036C
:103A40001092E8031092E90389E691E090937A04DA
:103A5000809379048DEC93E090937C0480937B04B5
:103A600080E091EEA0E0B0E080937D0490937E042E
:103A7000A0937F04B093800410922F078DE591E00E
:103A800090933E0780933D0710923F0710924007A6
:103A90001092410710924207109248071092470770
:103AA0001092490710924A0710924B0710924C0748
:103AB0001092520710925107109253071092540718
:103AC000109255071092560710925A0710925907F4
:103AD000E3EFF6E0A1ECB6E01D921D92EA17FB07BA
:103AE000D9F785E297E0119211928E179F07D9F7C7
:103AF000A1E9B4E0E9EAF5E01D92EA17FB07E1F776
:103B0000119286E0E13CF807D9F710928D041092EB
:103B10008E0410928F04109290048BE08093FC022C
:103B20001092FE028BE891E090936B0480936A04FC
:103B300083E791E090937104809370041092730472
:103B40001092720484EE9EE0909375048093740446
:103B500081E090E090937704809376048BEB92E081
:103B600090936F0480936E040895DB018F939F936D
:103B70000E941A1EBF91AF91A29F800D911DA39F1D
:103B8000900DB29F900D1124089597FB072E16F407
:103B9000009407D077FD09D00E945C1E07FC05D079
:103BA0003EF4909581959F4F0895709561957F4F54
:103BB0000895A1E21A2EAA1BBB1BFD010DC0AA1F6E
:103BC000BB1FEE1FFF1FA217B307E407F50720F086
:103BD000A21BB30BE40BF50B661F771F881F991F01
:103BE0001A9469F760957095809590959B01AC014A
:103BF000BD01CF010895052E97FB1EF400940E948D
:103C0000121E57FD07D00E94D91D07FC03D04EF4A9
:103C10000C94121E50954095309521953F4F4F4F73
:103C20005F4F089590958095709561957F4F8F4F68
:103C30009F4F08950E94761EA59F900DB49F900DF2
:103C4000A49F800D911D112408950F93083090F0CA
:103C5000982F872F762F652F542F432F322F22270F
:103C60000850F4CF220F331F441F551F661F771FC4
:103C7000881F991F0A95B2F70F91089597FB10F8C6
:103C8000169400080F93083098F00850232F342F13
:103C9000452F562F672F782F892F902DF4CF05941D
:103CA0009795879577956795579547953795279574
:103CB0000A95AAF70F910895AA1BBB1B51E107C0F3
:103CC000AA1FBB1FA617B70710F0A61BB70B881FAC
:103CD000991F5A95A9F780959095BC01CD0108953B
:103CE000EE0FFF1F0590F491E02D0994A29FB00103
:103CF000B39FC001A39F700D811D1124911DB29F20
:103D0000700D811D1124911D08955058BB27AA27BD
:103D10000E949D1E0C9417200E94092038F00E94DA
:103D2000102020F039F49F3F19F426F40C9406205B
:103D30000EF4E095E7FB0C940020E92F0E94282068
:103D400058F3BA17620773078407950720F079F4D0
:103D5000A6F50C944A200EF4E0950B2EBA2FA02D58
:103D60000B01B90190010C01CA01A0011124FF2728
:103D7000591B99F0593F50F4503E68F11A16F04023
:103D8000A22F232F342F4427585FF3CF4695379522
:103D90002795A795F0405395C9F77EF41F16BA0BE7
:103DA000620B730B840BBAF09150A1F0FF0FBB1F95
:103DB000661F771F881FC2F70EC0BA0F621F731FDE
:103DC000841F48F4879577956795B795F7959E3F3B
:103DD00008F0B0CF9395880F08F09927EE0F9795CC
:103DE000879508950E94DC1F08F481E008950E94E1
:103DF0000B1F0C9417200E94102058F00E940920DD
:103E000040F029F45F3F29F00C94002051110C94EC
:103E10004B200C9406200E94282068F39923B1F3CC
:103E2000552391F3951B550BBB27AA2762177307E0
:103E3000840738F09F5F5F4F220F331F441FAA1F74
:103E4000A9F335D00E2E3AF0E0E832D09150504030
:103E5000E695001CCAF72BD0FE2F29D0660F771FDE
:103E6000881FBB1F261737074807AB07B0E809F0C4
:103E7000BB0B802DBF01FF2793585F4F3AF09E3F49
:103E8000510578F00C9400200C944B205F3FE4F334
:103E9000983ED4F3869577956795B795F7959F5F8C
:103EA000C9F7880F911D9695879597F90895E1E0D8
:103EB000660F771F881FBB1F621773078407BA0737
:103EC00020F0621B730B840BBA0BEE1F88F7E09592
:103ED00008950E94701F6894B1110C944B200895AE
:103EE0000E94302088F09F5798F0B92F9927B7513A
:103EF000B0F0E1F0660F771F881F991F1AF0BA958E
:103F0000C9F714C0B13091F00E944A20B1E0089581
:103F10000C944A20672F782F8827B85F39F0B93F73
:103F2000CCF3869577956795B395D9F73EF4909540
:103F30008095709561957F4F8F4F9F4F0895E894BE
:103F400009C097FB3EF490958095709561957F4FE1
:103F50008F4F9F4F9923A9F0F92F96E9BB2793958F
:103F6000F695879577956795B795F111F8CFFAF49F
:103F7000BB0F11F460FF1BC06F5F7F4F8F4F9F4FD0
:103F800016C0882311F096E911C0772321F09EE82E
:103F9000872F762F05C0662371F096E8862F70E094
:103FA00060E02AF09A95660F771F881FDAF7880F6E
:103FB0009695879597F90895990F0008550FAA0BC4
:103FC000E0E8FEEF16161706E807F907C0F012162C
:103FD0001306E407F50798F0621B730B840B950B2F
:103FE00039F40A2661F0232B242B252B21F4089584
:103FF0000A2609F4A140A6958FEF811D811D089521
:1040000097F99F6780E870E060E008959FEF80EC8B
:10401000089500240A94161617061806090608952E
:1040200000240A9412161306140605060895092E94
:104030000394000C11F4882352F0BB0F40F4BF2B03
:1040400011F460FF04C06F5F7F4F8F4F9F4F089543
:1040500057FD9058440F551F59F05F3F71F0479539
:10406000880F97FB991F61F09F3F79F0879508951E
:10407000121613061406551FF2CF4695F1DF08C03D
:10408000161617061806991FF1CF8695710561055A
:1040900008940895E894BB2766277727CB0197F902
:1040A00008950E9464200C9417200E94092038F083
:1040B0000E94102020F0952311F00C9400200C9405
:1040C000062011240C944B200E94282070F3959F09
:1040D000C1F3950F50E0551F629FF001729FBB27FF
:1040E000F00DB11D639FAA27F00DB11DAA1F649F9B
:1040F0006627B00DA11D661F829F2227B00DA11D4E
:10410000621F739FB00DA11D621F839FA00D611DD3
:10411000221F749F3327A00D611D231F849F600DF4
:10412000211D822F762F6A2F11249F5750409AF01D
:10413000F1F088234AF0EE0FFF1FBB1F661F771FA9
:10414000881F91505040A9F79E3F510580F00C9474
:1041500000200C944B205F3FE4F3983ED4F3869507
:1041600077956795B795F795E7959F5FC1F7FE2B14
:10417000880F911D9695879597F90895A0E0B0E076
:10418000E4ECF0E20C94B722EC01009721F4CB01AF
:104190000E949221B4C0FC01E60FF71F9C0122503F
:1041A0003109E217F30708F4A8C0D9010D911C9159
:1041B000119706171707B0F00530110508F49BC0DA
:1041C000C80104978617970708F495C00250110993
:1041D000061B170B019311936D937C93CF010E94E3
:1041E0002A2289C05B01A01AB10A4C01800E911EDF
:1041F000A0917007B0917107612C712CE12CF12C0A
:10420000109709F446C08D919C911197A815B90596
:10421000B1F56C0142E0C40ED11CCA14DB0478F184
:104220004C018A189B08640142E0C40ED11C12960E
:10423000BC9012971396AC91B5E0CB16D10440F028
:10424000B282A38391828082D9016D937C9309C04D
:104250000E5F1F4F800F911FF90191838083EB2D1B
:10426000FA2FE114F10431F0D7011396FC93EE9389
:10427000129741C0F0937107E09370073CC0681635
:10428000790608F43C017D0112960D90BC91A02D99
:10429000B7CF80916E0790916F0788169906E1F469
:1042A00066167706C8F4809101019091020100978B
:1042B00041F48DB79EB74091050150910601841BD2
:1042C000950BE817F907C8F4F0936F07E0936E07B2
:1042D000F901718360830FC0CB010E9492217C01A0
:1042E000009759F0A801BE010E948921CE010E94C9
:1042F0002A22C70104C0CE0102C080E090E0CDB701
:10430000DEB7EEE00C94D32281E090E0F8940C94B8
:10431000EA22FB01DC0102C001900D9241505040A5
:10432000D8F708950F931F93CF93DF9382309105B1
:1043300010F482E090E0E0917007F091710720E0C6
:1043400030E0A0E0B0E0309719F140815181028166
:10435000138148175907C8F08417950769F4109717
:1043600031F012960C93129713961C9327C000936A
:1043700070071093710722C02115310519F04217FB
:10438000530718F49A01BD01EF01DF01F801DBCFFB
:1043900021153105F9F0281B390B2430310580F443
:1043A0008A819B816115710521F0FB0193838283D2
:1043B00004C09093710780937007FE01329644C049
:1043C000FE01E20FF31F819391932250310939834B
:1043D00028833AC020916E0730916F07232B41F458
:1043E000209103013091040130936F0720936E07F1
:1043F00020910101309102012115310541F42DB7C1
:104400003EB74091050150910601241B350BE09108
:104410006E07F0916F07E217F307A0F42E1B3F0B16
:104420002817390778F0AC014E5F5F4F2417350726
:1044300048F04E0F5F1F50936F0740936E078193B4
:10444000919302C0E0E0F0E0CF01DF91CF911F91A6
:104450000F910895CF93DF93009709F481C0FC0179
:10446000329713821282A0917007B0917107109752
:1044700081F420813181820F931F20916E0730914A
:104480006F072817390751F5F0936F07E0936E0710
:1044900067C0ED0120E030E0CE17DF0740F44A812D
:1044A0005B819E0141155105F1F0EA01F5CFD383FF
:1044B000C28340815181840F951FC817D90759F4D1
:1044C00088819981840F951F0296918380838A81C8
:1044D0009B81938382832115310529F4F093710721
:1044E000E09370073DC0E901FB83EA83499159914C
:1044F000C40FD51FEC17FD0761F480819181840FF3
:10450000951F0296E90199838883828193819B8319
:104510008A83E0E0F0E012968D919C9113970097CA
:1045200019F0FD01DC01F7CF8D919C9111979D0150
:104530002E5F3F4F820F931F20916E0730916F07C0
:104540002817390769F4309729F4109271071092EF
:10455000700702C013821282B0936F07A0936E0798
:10456000DF91CF9108952F923F924F925F926F9279
:104570007F928F929F92AF92BF92CF92DF92EF92F3
:10458000FF920F931F93CF93DF93CDB7DEB7CA1B74
:10459000DB0B0FB6F894DEBF0FBECDBF09942A889F
:1045A000398848885F846E847D848C849B84AA8447
:1045B000B984C884DF80EE80FD800C811B81AA81D4
:1045C000B981CE0FD11D0FB6F894DEBF0FBECDBF9F
:0845D000ED010895F894FFCFFE
:1045D800FF000072072000726F7373657269616C67
:1045E8005F6D7367732F526571756573745061726F
:1045F800616D0000000000620B32032F032C0300E2
:10460800000000300BD602D302D002000000006C7C
:10461800042604230420040000000024018D00BBAC
:10462800007101EC00CA00DE0000000000570A2DEE
:1046380005CD02CA0200000000AC01E8069D010099
:10464800000000BF029B02A501A20100000000902B
:104658000490049004900400000000AA02A801A598
:1046680001A20131646637396564663230386236D2
:10467800323966653662383139323361353434352A
:10468800353264007374645F6D7367732F55496EB8
:10469800743136004D6573736167652066726F6D9E
:1046A800206465766963652064726F707065643A2A
:1046B800206D657373616765206C61726765722030
:1046C8007468616E206275666665722E00396630A0
:1046D8006539386264613635393831393836646459
:1046E800663533616661376134306534390031319C
:1046F800616264373331633235393333323631638B
:104708006436313833626431326436323935007296
:104718006F7373657269616C5F6D7367732F4C6F2C
:104728006700306164353166383866633434383947
:1047380032663863313036383430373736343630CD
:10474800303500726F7373657269616C5F6D736782
:10475800732F546F706963496E666F0063643731F5
:1047680036366337346335353263333131666263E5
:104778006332666535613762633238390073746451
:104788005F6D7367732F54696D650062616E676250
:04479800616E6700E7
:00000001FF
