:100000000C9462000C948A000C948A000C948A0070
:100010000C948A000C948A000C948A000C949F0A19
:100020000C948A000C948A000C948A000C948A0028
:100030000C948A000C948A000C948A000C948A0018
:100040000C94650E0C948A000C94D50E0C94AF0E93
:100050000C948A000C948A000C948A000C948A00F8
:100060000C948A000C948A000000000023002600F3
:10007000290000000000240027002A0000000000E2
:10008000250028002B0004040404040404040202D4
:100090000202020203030303030301020408102007
:1000A0004080010204081020010204081020000012
:1000B0000008000201000003040700000000000027
:1000C00000004C0F11241FBECFEFD8E0DEBFCDBF24
:1000D00012E0A0E0B1E0ECE0FAE202C005900D927F
:1000E000A43CB107D9F727E0A4ECB2E001C01D920F
:1000F000A434B207E1F710E0C2E6D0E004C02197D3
:10010000FE010E949211C136D107C9F70E941F104B
:100110000C9404150C940000FC01918D828D9817AD
:1001200061F0828DDF01A80FB11D5D968C91928DDB
:100130009F5F9F73928F90E008958FEF9FEF0895D8
:10014000FC01918D828D981731F0828DE80FF11DA1
:10015000858D90E008958FEF9FEF0895FC01918DBC
:10016000228D892F90E0805C9F4F821B91098F73B5
:100170009927089580E090E0892B29F00E944E0D88
:1001800081110C94000008958A549D4FFC018081D8
:100190000895AF92BF92CF92DF92EF92FF920F93AA
:1001A0001F93CF93DF9300D000D01F92CDB7DEB75F
:1001B000643671053CF0FC01EA54FD4F2081222396
:1001C00009F477C0DA017B018C01BC01695C7E4FC8
:1001D000ED91FC910190F081E02DCA010995680133
:1001E00020EDC21A2EEFD20A2FEFD6012C93F80180
:1001F000EF5CFE4F2EEF2083319680833196908303
:100200003196292F280F209520833196E08216966B
:10021000FC9245E050E020E030E0DC011696A417A7
:10022000B50734F06191260F311D4F5F5F4FF7CF57
:100230007C01B8E0EB0EF11C800F911FFC01E95C22
:10024000FE4F20952083E9E1EE16E1E0FE06BCF4C6
:100250005601C5018C199D098E159F056CF5D801B5
:1002600012968D919C911397F50161915F01DC01CC
:10027000ED91FC910190F081E02D0995EACF86E2A5
:1002800091E09A83898383E08B8382E991E09D8367
:100290008C83D801ED91FC910190F081E02DAE01AD
:1002A0004F5F5F4F67E070E0C80109958FEF9FEFE8
:1002B00004C080E090E001C0C7010F900F900F9044
:1002C0000F900F90DF91CF911F910F91FF90EF90C2
:1002D000DF90CF90BF90AF9008958BEC91E00895A0
:1002E0008CEE91E00895FC01848595850895CF9268
:1002F000DF92EF92FF92FC01108211821282138230
:10030000DB0120E030E04D9150E0022E02C0440FAE
:10031000551F0A94E2F7052E000C660B770BC08080
:10032000D180E280F3804C295D296E297F294083AA
:10033000518362837383285F3F4F2032310519F761
:10034000FF90EF90DF90CF900895CF92DF92EF92E1
:10035000FF9220E030E06A017B01022E04C0F69497
:10036000E794D794C7940A94D2F7FC01C192CF01C5
:10037000285F3F4F2032310571F7FF90EF90DF90FB
:10038000CF900895FB01208130E0FC01338322836C
:10039000FB014181342BFC013383228382E090E016
:1003A00008950F931F93CF93DF938C01EC01269652
:1003B000CE010E94C201D8011A96ED91FC911B97C3
:1003C000CE01DF91CF911F910F910994FC01228101
:1003D000FB012083FC018381FB01818382E090E0AB
:1003E00008958CEF91E0089586E091E008958DE105
:1003F00092E008958EE392E008954F925F926F929B
:100400007F928F929F92AF92BF92EF92FF920F9343
:100410001F93CF93DF9300D000D0CDB7DEB77C0120
:100420008B01FB018191BF01F7018283CE0101960F
:100430000E94770189819A81AB81BC814C015D0169
:10044000F5E08F0E911CA11CB11CA8014C5F5F4F01
:10045000FA0125E030E02901612C712C481459047F
:100460006A047B0428F4618161932F5F3F4FF3CFCF
:10047000F801E80FF91F1482F701548343830596AE
:100480000F900F900F900F90DF91CF911F910F91D0
:10049000FF90EF90BF90AF909F908F907F906F9064
:1004A0005F904F90089581E592E0089582E792E091
:1004B00008954F925F926F927F928F929F92AF9228
:1004C000BF92CF92DF92EF92FF920F931F93CF9341
:1004D000DF93CDB7DEB72C970FB6F894DEBF0FBE13
:1004E000CDBF7C018B01DB018C9190E0F701938300
:1004F000828311962C91922B938382836E5F7F4F20
:10050000CE0101960E94770189809A80AB80BC80E1
:1005100024013501F6E04F0E511C611C711C98013D
:100520002B5F3F4FF90186E090E0AC0160E070E0A6
:10053000441555056605770520F4418141930196E0
:10054000F4CFF801E80DF91D1582D70115963C93FB
:100550002E931497B4016A5F7F4F600F711FCE0115
:1005600005960E947701BAE08B0E911C4D805E804B
:100570006F807884A401092C000C660B770B440D66
:10058000551D661D771DD801A80DB91DCD01801B15
:10059000910B5C01C12CD12CA416B506C606D7065A
:1005A00028F48D91FD0132978083F0CF5401A40C83
:1005B000B51CB8016A0D7B1DFB0131971082C40187
:1005C0000197800F911FF70197838683CE010996CB
:1005D0000E94770195012C5F3F4F89859A85AB85F5
:1005E000BC852901032E000C66087708480E591EA9
:1005F0006A1E7B1EF5013396E00FF11FA9014A0127
:10060000A12CB12C84149504A604B70428F46181AC
:1006100061934F5F5F4FF3CF820F931FF801E80F95
:10062000F91FDF0111971C9221503109020F131F8E
:10063000D70119961C930E9318972181428150E09F
:1006400060E070E0BA0155274427522B2081422BED
:100650002381722BF701428753876487758704963D
:100660002C960FB6F894DEBF0FBECDBFDF91CF91B1
:100670001F910F91FF90EF90DF90CF90BF90AF90C0
:100680009F908F907F906F905F904F9008958BE830
:1006900092E008958CEA92E00895FC01DB014C9110
:1006A00050E060E070E04283538364837583119669
:1006B0008C911197582B42835383648375831296D0
:1006C0008C911297682B42835383648375831396AE
:1006D0008C911397782B428353836483758314968C
:1006E0004C91149750E060E070E046835783608738
:1006F000718715968C911597582B46835783608781
:10070000718716968C911697682B4683578360875E
:10071000718717968C91782B4683578360877187F2
:1007200088E090E00895DC01FB0112968C9112970D
:10073000808313968C911397818314968C911497D0
:10074000828315968C911597838316968C911697B4
:10075000848317968C911797858318968C91189798
:10076000868319968C91878388E090E008952F9274
:100770003F924F925F926F927F928F929F92AF9231
:10078000BF92CF92DF92EF92FF920F931F93CF937E
:10079000DF93CDB7DEB760970FB6F894DEBF0FBE1C
:1007A000CDBF8C016B01DB018D909D90AD90BC9015
:1007B000FC0182819381A481B58188159905AA05E0
:1007C000BB0570F4B401660F771F660F771F828533
:1007D00093850E94D812D8011B969C938E931A97EA
:1007E000F80182829382A482B5829601812C912C99
:1007F000540144E050E0B8016A5F7F4F2C5F3F4FE7
:10080000F80182819381A481B581FA0134961F0198
:1008100088169906AA06BB0650F5D9011196FC90D8
:10082000119712968C9190E0A0E0B0E0DC0199273E
:1008300088279F29F901F0808F29F380BF29F801CB
:1008400086839783A087B187DA01A10114978285F7
:100850009385A80FB91F84E0FB0101900D928A9542
:10086000E1F7FFEF8F1A9F0AAF0ABF0AC7CF460111
:10087000840E951ED4018C9111969C91119712961D
:100880004C901297512C612C712C32015524442428
:10089000592A482A13968C91782A5F01F801848599
:1008A0009585A685B78584159505A605B70570F4C9
:1008B000B201660F771F660F771F848995890E94A2
:1008C000D812D80155969C938E935497F80144867C
:1008D000558666867786C401412C512C32019801D9
:1008E000205F3F4FD8011C964D915D916D917C9199
:1008F0001F97F5013496441655066606770698F557
:10090000DC011596FC90159716964C91169750E0C1
:1009100060E070E0BA01552744275F291496FC90E7
:1009200014974F291796FC907F29D80150964D9324
:100930005D936D937C9353975F01AC0148195909FE
:1009400054960D90BC91A02DA40FB51F44E0F90161
:1009500001900D924A95E1F7BFEF4B1A5B0A6B0AC3
:100960007B0A0496BFCFD601AA0DBB1D8C911196B0
:100970009C91119712968C901297912CA12CB12CCE
:10098000540199248824992A882A13968C91B82A8C
:100990007F01F80186899789A08DB18D8815990509
:1009A000AA05BB0560F4B401660F771F848D958D91
:1009B0000E94D812D8015D969C938E935C97F801A3
:1009C000868A978AA08EB18E212C312C812C912C75
:1009D00054019801265E3F4F3A872987F80186899E
:1009E0009789A08DB18D88169906AA06BB0608F0D6
:1009F0005FC0B6016E0D7F1DCE0101960E9477018A
:100A000097012C5F3F4F388B2F8749815A816B812B
:100A10007C81C901330FAA0BBB0B2C013D01440E95
:100A2000551E661E771E4B865C866D867E8623E08D
:100A3000E20EF11CF601EE0DFF1D2F853889C9016C
:100A4000A0E0B0E04B845C846D847E8484159505C1
:100A5000A605B70528F4A181A1932F5F3F4FEFCFE3
:100A60006F847888460D571DF601E40FF51F319706
:100A70001082C30101978C0D9D1DD8015B969C933C
:100A80008E935A977A015C96ED91FC915D97E20DF9
:100A9000F31DA985BA858D919C9191838083BFEFC9
:100AA0008B1A9B0AAB0ABB0AE2E02E0E311C96CFD2
:100AB000C70160960FB6F894DEBF0FBECDBFDF91C1
:100AC000CF911F910F91FF90EF90DF90CF90BF904B
:100AD000AF909F908F907F906F905F904F903F90DE
:100AE0002F9008952F923F924F925F926F927F9234
:100AF0008F929F92AF92BF92CF92DF92EF92FF922E
:100B00000F931F93CF93DF93CDB7DEB7A6970FB6A2
:100B1000F894DEBF0FBECDBF8C010E94210E4B01A9
:100B20005C01980125543D4F3E8B2D8BF90180814E
:100B30009181A281B381A5019401281B390B4A0B35
:100B40005B0BDA01C901893F9A42A105B10510F09A
:100B500035971082180144E5241A4DEF340AD1016B
:100B60008D919C91892B79F0F801E154FD4F8081A2
:100B70009181A281B38188159905AA05BB0518F456
:100B8000F1011182108298012C543D4F3A8B298B30
:100B9000A80140555D4F5C8B4B8BC8014896988FE0
:100BA0008F8BD801AA54BD4FBC8FAB8FF801EC538B
:100BB000FD4FFE8FED8F215F3F4F38A32F8F4250A7
:100BC0005109588B4F8786569D4F9A8F898F19965A
:100BD000BAA3A9A3A50194012C5E3F4F4F4F5F4FCD
:100BE0002BA33CA34DA35EA3F80184899589A68914
:100BF000B789892B8A2B8B2B81F4D80112968D9182
:100C00009C911397DC01ED91FC910284F385E02D1A
:100C100009959C0197FF14C08FC20E94210EDC0130
:100C2000CB0188199909AA09BB09F801C488D5889C
:100C3000E688F788C816D906EA06FB06F0F6A3C2CE
:100C4000A989BA898D919C911197820F931F8D93D9
:100C50009C93F1014081518147305105D9F4A98D10
:100C6000BA8D8D919C911197AC014F5F5F4F4D9361
:100C70005C93F801E80FF91F208FEF85F8898081D8
:100C80009181019791838083892B09F0ADCF88E012
:100C900090E032C04115510539F52F3F310589F4F7
:100CA00081E090E0F101918380832BA13CA14DA1D3
:100CB0005EA1A9A1BAA12D933D934D935C93139787
:100CC00093CF0E94210EDC01CB0188199909AA0952
:100CD000BB0989389341A105B10508F485CFF80116
:100CE000EA54FD4F10824FC241305105A9F42E3F06
:100CF000310531F482E090E0D1018D939C9374CF63
:100D0000F10111821082AB8DBC8D8C9181116CCF61
:100D1000C8010E942D0E68CF4230510591F4EF8535
:100D2000F88931832083A98DBA8D1D921C9283E0AE
:100D300090E0F10191838083A989BA892D933C9336
:100D400053CF4330510569F4322F2227EF85F889BC
:100D500080819181280F391F3183208384E090E0C6
:100D6000CBCF4430510581F460E071E00E943D1129
:100D70008F3F910531F485E090E0F101918380830C
:100D800033CF1182108230CF4530510571F4EB8999
:100D9000FC893183208386E090E0D1018D939C9380
:100DA000E989FA89318320831FCF46305105A9F4A0
:100DB000322F2227AB89BC898D919C911197280FE6
:100DC000391F2D933C9387E090E0F101918380835C
:100DD000AF85B8898D919C9157CF4830510509F066
:100DE00003CFF1011182108260E071E00E943D1199
:100DF0008F3F910509F0F8CEAB89BC898D919C910C
:100E0000009709F0C8C0C8010E942D0E82E391E04E
:100E10009A8389831C821B828AEC91E09E838D8356
:100E200098878F839A8789871B861C861D861E86D6
:100E30006801B8EBCB1ABDEFDB0A7801E6E8EE1AE1
:100E4000EDEFFE0A28E1422E55245394612C712CBB
:100E5000D601ED91FC913097A9F1848195819C8315
:100E60008B83808191819E838D8382819381DC013C
:100E7000ED91FC910480F581E02D099598878F8391
:100E8000D601ED91FC9182819381DC01ED91FC9181
:100E90000680F781E02D09959A8789874B865C86C5
:100EA0006D867E86D601ED91FC9160857185D801B5
:100EB000ED91FC910190F081E02DAE014F5F5F4F0D
:100EC000C8010995B2E0CB0ED11CEC14FD0409F069
:100ED000BFCF98E1492E55245394612C712CF70112
:100EE000A081B1811097E1F112968D919C91139799
:100EF0009C838B8314968D919C9115979E838D83F3
:100F0000ED91FC9111970480F581E02DCD010995BB
:100F100098878F83D7018D919C91DC01ED91FC9195
:100F20000680F781E02D09959A8789874B865C8634
:100F30006D867E86D801ED91FC91C080D180F7014D
:100F400080819181DC01ED91FC910280F381E02DA3
:100F50000995AE014F5F5F4FBC01C801F6010995CD
:100F6000F2E0EF0EF11CE214F30409F0B8CFF8013F
:100F7000EA54FD4F81E08083319680829182A28283
:100F8000B382AD89BE898D929D92AD92BC9213972A
:100F90008FEF9FEFFDC08A30910509F0A2C08EE36C
:100FA00091E09A8389831B821C821D821E821F828C
:100FB000188619861A860E94210EF801C084D184F1
:100FC000E284F3849B01AC012C193D094E095F09B1
:100FD00069017A016F89788DCE0101960E944D03D7
:100FE000C701B60128EE33E040E050E00E94511105
:100FF000CB80DC80ED80FE80C20ED31EE41EF51E89
:10100000CB82DC82ED82FE829B01AC0160E472E463
:101010008FE090E00E942D11CF80D884E984FA847B
:10102000DC01CB018C0D9D1DAE1DBF1D8F839887EC
:10103000A987BA870E94210ECF80D884E984FA84D8
:1010400036E3D31A35E6E30A34ECF30A28EE33E04C
:1010500040E050E00E94511129013A019B01AC018E
:1010600060E472E48FE090E00E942D11A7019601E8
:10107000261B370B480B590BCA01B901CB80DC800A
:10108000ED80FE8031E0C31AD108E108F108A70124
:101090009601241935094609570929013A0120E02A
:1010A0003AEC4AE95BE30E94511173016201C20EFE
:1010B000D31EE41EF51ED8011C96CD92DD92ED9252
:1010C000FC921F97F801608B718B828B938B0E942F
:1010D000210EAD89BE896D937D938D939C9313975B
:1010E00083CD8630910559F46F89788D8D8D9E8DD5
:1010F0000E94B70381E0EF8DF8A1808375CD8B301E
:10110000910521F4AB8DBC8D1C926ECDFC01E75294
:10111000FF4FEE0FFF1FE00FF11F808191810097BD
:1011200009F462CDDC01ED91FC910190F081E02D9C
:101130006F89788D099558CDF801EA54FD4F80816B
:10114000882321F17801B9E4EB1ABDEFFB0AF7011E
:1011500080819181A281B381A5019401281B390B63
:101160004A0B5B0BDA01C901853C9940A105B10529
:1011700068F0C8010E942D0ED7018D929D92AD920C
:10118000BC92139703C08EEF9FEF02C080E090E007
:10119000A6960FB6F894DEBF0FBECDBFDF91CF91FC
:1011A0001F910F91FF90EF90DF90CF90BF90AF9085
:1011B0009F908F907F906F905F904F903F902F9077
:1011C00008954F925F926F927F92AF92BF92CF92AB
:1011D000DF92EF92FF920F931F93CF93DF93EC0177
:1011E0008B018A81FB0180838B8181838C81828347
:1011F0008D818383DB0140E050E0BA01E4E0F0E060
:101200001496CA80DB80EC80FD80CF0104964C15DB
:101210005D056E057F05C8F42A853B85E20FF31F47
:101220003497D080F18032812381DC921196FC9238
:10123000119712963C93129713962C931397FC01D7
:101240004F5F5F4F6F4F7F4FDBCF5F01A00EB11E2F
:101250002C85F50120832D8521832E8522832F85E2
:101260002383D50140E050E0BA01CC84DD84EE84D4
:10127000FF849C012C5F3F4F4C155D056E057F057B
:10128000F8F4CD018A199B09EC88FD888E0D9F1D0D
:10129000FC01D080E180F28083811496DC92149767
:1012A0001596EC9215971696FC92169717968C93B6
:1012B0001797C9014F5F5F4F6F4F7F4F1496D5CF80
:1012C000F801E80FF91F8E8980838F898183888DCB
:1012D0008283898D83837901A12CB12C412C512CDF
:1012E00032018E899F89A88DB98D481659066A06E4
:1012F0007B0680F5EC8DFD8DEA0DFB1DA081B18193
:10130000FD0101900020E9F731976F01CA1ADB0A4D
:10131000A60160E070E0C8018E0D9F1D0E94A5012E
:10132000F4E0EF0EF11CEC8DFD8DEA0DFB1D6081EC
:101330007181A601C8018E0D9F1D0E94A313EC0CA4
:10134000FD1C8FEF481A580A680A780AE2E0AE0ED0
:10135000B11CC7CFC701DF91CF911F910F91FF90B3
:10136000EF90DF90CF90BF90AF907F906F905F90A5
:101370004F900895EF92FF920F931F93CF93DF93B7
:101380008C017B01DC0112962C911297FB012193B9
:10139000CF011396ED91FC911497EF010990002075
:1013A000E9F72197CE1BDF0BAE0160E070E00E94F1
:1013B000A501D80113966D917C911497AE01C701D8
:1013C00005960E94A313CE010596DF91CF911F9140
:1013D0000F91FF90EF900895CF92DF92EF92FF92DE
:1013E0000F931F93CF93DF937C018B01DC01129647
:1013F0008C911297FB01808313968C9113978183B4
:101400001496ED91FC911597EF0109900020E9F7F2
:101410002197CE1BDF0BAE0160E070E0C8010296A1
:101420000E94A501D70114966D917C911597AE018C
:10143000C80106960E94A313CE010696F701A68165
:10144000B781FD0101900020E9F731976F01CA1AB9
:10145000DB0AA60160E070E0800F911F0E94A501E9
:101460002A96D70116966D917C911797A601C8010F
:101470008C0F9D1F0E94A313CC0DDD1DD701189664
:10148000ED91FC911997DF010D900020E9F711977C
:101490006D01CE1ADF0AA60160E070E0C8018C0F72
:1014A0009D1F0E94A5012496F70160857185A60104
:1014B000C8018C0F9D1F0E94A313C6018C0F9D1F96
:1014C000D7011A966C911A971B964C911B971C96F4
:1014D0003C911C971D962C91F801E80FF91F608331
:1014E0004183328323830496DF91CF911F910F9123
:1014F000FF90EF90DF90CF900895FC01848DDF0185
:10150000A80FB11DA35ABF4F2C91848D90E0019676
:101510008F739927848FA689B7892C93A089B18965
:101520008C91837080648C93938D848D981306C006
:101530000288F389E02D80818F7D808308951F923A
:101540000F920FB60F9211242F933F934F935F93F7
:101550006F937F938F939F93AF93BF93CF93DF93BB
:10156000EF93FF932091CD0230E0F901E255FF4F58
:101570008491F901E656FF4FD491F901EA57FF4FE4
:10158000C491CC2379F081110E94C90DEC2FF0E0B9
:10159000EE0FFF1FE859FF4FA591B491EC91ED2399
:1015A00081E009F480E02091D1023091D2022F5FD6
:1015B0003F4F3093D2022093D1029091D0029536C2
:1015C00018F096E09093CC029091CC029430C9F13F
:1015D00028F4923069F09330D1F05EC0953009F470
:1015E00051C0963009F058C091E090939D0351C0CE
:1015F000811152C02091D1023091D202243631059E
:1016000008F442C010929D031092D0021CC0813099
:1016100009F042C0E091D00291E09E0F9093D00279
:10162000F0E02091D1023091D202EE0FFF1FE4537F
:10163000FD4F308727831092D2021092D10294E09E
:1016400029C0811117C0E091D00291E09E0F9093C4
:10165000D002F0E02091D1023091D202EE0FFF1FB4
:10166000E453FD4F308727831092D2021092D102AB
:1016700093E010C02091D1023091D202253631057D
:1016800058F007C0811108C01092D2021092D10206
:1016900003C095E09093CC029091CF029923B9F0CA
:1016A00081110AC08091CE02882321F08091CE0260
:1016B00061E009C02D9A0BC08091CE02882331F0E1
:1016C0008091CE0260E00E94F20D01C02D98FF9142
:1016D000EF91DF91CF91BF91AF919F918F917F91CA
:1016E0006F915F914F913F912F910F900FBE0F908F
:1016F0001F901895CF92DF92EF92FF920F931F9356
:10170000CF93DF938C017B01EA0160E0FC018081D3
:101710000E94F20D83E090E00197F1F761E0F8019B
:1017200080810E94F20D83E290E00197F1F760E082
:10173000F80180810E94F20DF70180819181992743
:10174000FC01E656FF4F6491FC01EA57FF4FE4911C
:10175000F0E0EE0FFF1FE859FF4F8591949100E4F0
:1017600012E42FE030E0462F0E94070F611571054B
:101770008105910549F0DC01CB010196A11DB11D48
:10178000BC01CD019F7003C060E070E0CB016093AD
:10179000C8027093C9028093CA029093CB02C09092
:1017A000C402D090C502E090C602F090C702C88281
:1017B000D982EA82FB820E94DF1126E933E44BE002
:1017C0005DE30E94431220E030E040E05FE30E94CE
:1017D00043120E94A7118B019C010C191D092E09AF
:1017E0003F09043611052105310574F46835F2E02E
:1017F0007F078105910544F46093C4027093C5028C
:101800008093C6029093C7026091C4027091C50292
:101810008091C6029091C702DF91CF911F910F91E5
:10182000FF90EF90DF90CF90089560E085E00E94F8
:10183000F20D60E086E00C94F20D61E085E00E941C
:10184000F20D61E086E00E94F20D61E087E00E9407
:10185000F20D60E088E00E94F20D60E089E00E94F5
:10186000F20D61E08BE00C94F20DFC01828193811A
:101870008130910511F40C941D0C82309105B1F466
:101880006AEF85E00E94F20D6AEF86E00E94F20D99
:1018900061E087E00E94F20D60E088E00E94F20DB6
:1018A00061E089E00E94F20D60E017C00397C1F487
:1018B0006AEF85E00E94F20D6AEF86E00E94F20D69
:1018C00060E087E00E94F20D61E088E00E94F20D86
:1018D00060E089E00E94F20D61E08BE00C94F20D73
:1018E0000C94150CCF92DF92EF92FF92CF93DF937F
:1018F000EC016A017B01E889F98982E08083411566
:10190000514E61057105B1F060E079E08DE390E042
:10191000A70196010E945111DA01C9010197A1099D
:10192000B109B695A795979587959C01211580E1FA
:101930003807A8F0E889F989108260E874E88EE138
:1019400090E0A70196010E945111DA01C9010197A7
:10195000A109B109B695A795979587959C01EC8546
:10196000FD853083EE85FF852083188EEC89FD8907
:1019700086E08083EA89FB89808180618083EA89AF
:10198000FB89808188608083EA89FB898081806807
:101990008083EA89FB8980818F7D8083DF91CF916D
:1019A000FF90EF90DF90CF900895CF93DF9390E07A
:1019B000FC01E656FF4F2491FC01EA57FF4F84914A
:1019C000882361F190E0880F991FFC01EE58FF4FCA
:1019D000C591D491FC01E458FF4FA591B4916111D8
:1019E00009C09FB7F8948881209582238883EC9161
:1019F0002E230BC0623061F49FB7F8948881322F98
:101A0000309583238883EC912E2B2C939FBF06C0A7
:101A10008FB7F894E8812E2B28838FBFDF91CF9169
:101A20000895CF92DF92EF92FF920F931F93CF937F
:101A3000DF936C017A018B01C0E0D0E0CE15DF05A9
:101A400081F0D8016D918D01D601ED91FC9101904D
:101A5000F081E02DC6010995892B11F02196EECF7A
:101A60007E01C701DF91CF911F910F91FF90EF9001
:101A7000DF90CF900895089580E090E00895FC01F4
:101A8000538D448D252F30E0842F90E0821B930BE3
:101A9000541710F0CF9608950197089583EB93E0C3
:101AA0000E94AE0021E0892B09F420E0822F0895E6
:101AB0000E949E13EF92FF920F931F93CF93DF9399
:101AC000EC0181E0888F9B8D8C8D981305C0E8898F
:101AD000F989808185FD26C0F62E0B8D10E00F5F01
:101AE0001F4F0F731127E02E8C8DE8120CC00FB61C
:101AF00007FCFACFE889F989808185FFF5CFCE010F
:101B00000E947D0AF1CF8B8DFE01E80FF11DE35A93
:101B1000FF4FF0829FB7F8940B8FEA89FB89808191
:101B200080620AC09FB7F894EE89FF896083E889D4
:101B3000F98980818370806480839FBF81E090E019
:101B4000DF91CF911F910F91FF90EF900895CF9368
:101B5000DF93EC01888D8823C9F0EA89FB898081B5
:101B600085FD05C0A889B9898C9186FD0FC00FB687
:101B700007FCF5CF808185FFF2CFA889B9898C91C8
:101B800085FFEDCFCE010E947D0AE7CFDF91CF9197
:101B90000895833081F028F4813099F08230A1F0EB
:101BA00008958730A9F08830B9F08430D1F480915D
:101BB00080008F7D03C0809180008F7780938000AC
:101BC000089584B58F7702C084B58F7D84BD089554
:101BD0008091B0008F7703C08091B0008F7D80939B
:101BE000B00008951F93CF93DF93282F30E0F901C1
:101BF000E255FF4F8491F901E656FF4FD491F90168
:101C0000EA57FF4FC491CC23C1F0162F81110E94D7
:101C1000C90DEC2FF0E0EE0FFF1FE458FF4FA59128
:101C2000B4919FB7F894111104C08C91D095D8232A
:101C300002C0EC91DE2BDC939FBFDF91CF911F910F
:101C400008952FB7F8946091AF037091B00380911D
:101C5000B1039091B2032FBF08950F931F93CF93B9
:101C6000DF93CDB7DEB72A970FB6F894DEBF0FBE6D
:101C7000CDBF8C018EE391E09A8389831B821C8205
:101C80001D821E821F82188619861A86D801ED9140
:101C9000FC910190F081E02DAE014F5F5F4F6AE053
:101CA00070E0C80109950E94210EF80160877187D4
:101CB000828793872A960FB6F894DEBF0FBECDBFFA
:101CC000DF91CF911F910F9108951F920F920FB640
:101CD0000F9211242F933F938F939F93AF93BF93B2
:101CE0008091AF039091B003A091B103B091B20382
:101CF0003091AE0323E0230F2D3720F40196A11D70
:101D0000B11D05C026E8230F0296A11DB11D209329
:101D1000AE038093AF039093B003A093B103B0934D
:101D2000B2038091AA039091AB03A091AC03B09150
:101D3000AD030196A11DB11D8093AA039093AB033F
:101D4000A093AC03B093AD03BF91AF919F918F91DE
:101D50003F912F910F900FBE0F901F9018951F92DB
:101D60000F920FB60F9211242F933F934F935F93CF
:101D70006F937F938F939F93AF93BF93EF93FF9353
:101D800083EB93E00E947D0AFF91EF91BF91AF91A9
:101D90009F918F917F916F915F914F913F912F9183
:101DA0000F900FBE0F901F9018951F920F920FB6B5
:101DB0000F9211242F938F939F93EF93FF93E091B2
:101DC000C303F091C4038081E091C903F091CA0379
:101DD00082FD12C090818091CC038F5F8F73209120
:101DE000CD03821751F0E091CC03F0E0ED54FC4FAD
:101DF000958F8093CC0301C08081FF91EF919F91DB
:101E00008F912F910F900FBE0F901F901895CF922A
:101E1000DF92EF92FF920F931F93E82FF92F05C0E7
:101E2000015011092109310961F19081962394171C
:101E3000B9F305C0015011092109310911F190814F
:101E400096239413F7CFC12CD12CE12CF12C0AC08E
:101E50008FEFC81AD80AE80AF80A0C151D052E05D6
:101E60003F0579F080818623841791F36C2D7D2DB9
:101E70008E2D9F2D1F910F91FF90EF90DF90CF90AF
:101E8000089560E070E080E090E01F910F91FF9076
:101E9000EF90DF90CF9008951092B6031092B503A3
:101EA00088EE93E0A0E0B0E08093B7039093B8038E
:101EB000A093B903B093BA038AE491E09093B4037A
:101EC0008093B30385EC90E09093C0038093BF03AD
:101ED00084EC90E09093C2038093C10380EC90E087
:101EE0009093C4038093C30381EC90E09093C60366
:101EF0008093C50382EC90E09093C8038093C7035E
:101F000086EC90E09093CA038093C9031092CC03AF
:101F10001092CD031092CE031092CF0388E691E089
:101F200090935F0480935E0483EB93E0909361044D
:101F30008093600480E091EEA0E0B0E080936204C2
:101F400090936304A0936404B09365041092140703
:101F50008CE591E090932307809322071092240749
:101F600010922507109226071092270710922D072E
:101F700010922C0710922E0710922F071092300704
:101F800010923107109237071092360710923807D7
:101F90001092390710923A0710923B0710923F07B0
:101FA00010923E07E8EDF6E0A6EAB6E01D921D921B
:101FB000EA17FB07D9F78AE097E0119211928E1782
:101FC0009F07D9F7A6E7B4E0EEE8F5E01D92EA171F
:101FD000FB07E1F7119286E0E63AF807D9F710928D
:101FE000720410927304109274041092750484E0C9
:101FF0008093CD021092CF028AE891E09093510431
:102000008093500482E791E09093570480935604A4
:10201000109259041092580485E39CE090935B045D
:1020200080935A0481E090E090935D0480935C0477
:102030008AEB92E090935504809354040895CF93D3
:10204000DF9300D000D0CDB7DEB7789484B582603E
:1020500084BD84B5816084BD85B5826085BD85B54C
:10206000816085BD80916E00816080936E001092CA
:102070008100809181008260809381008091810045
:1020800081608093810080918000816080938000D6
:102090008091B10084608093B1008091B000816034
:1020A0008093B00080917A00846080937A00809160
:1020B0007A00826080937A0080917A0081608093B8
:1020C0007A0080917A00806880937A001092C10033
:1020D00040E855E260E070E083EB93E00E94720C10
:1020E00040916204509163046091640470916504AE
:1020F00080916004909161040E94720C10920B0711
:1021000010920A0710920D0710920C0710921107F7
:102110001092100710920F0710920E07E8EDF6E0EC
:1021200080E090E021913191232B81F4FC01EE0FAE
:10213000FF1FE852F94F20E534E0318320838C59AA
:102140009F4F909353048093520404C001968931A9
:10215000910541F761E087E00E94D50C61E088E0DD
:102160000E94D50C61E089E00E94D50C61E08BE013
:102170000E94D50C61E085E00E94D50C61E086E00C
:102180000E94D50C0E94150CF89482E08093B00058
:102190008093B10094E69093B3001092B2008093C4
:1021A000700078948093CC021092D0028091CD027E
:1021B00060E00E94D50C82E0882E912C93E0A92E3D
:1021C000B12CCC24C394D12C3DE0E32EF12C0CE0B7
:1021D00010E09A828982BC82AB8246EA53E0BE015B
:1021E0006F5F7F4FCE0103960E947A0B6093A60328
:1021F0007093A7038093A8039093A903DA82C982FE
:102200001C821B8242EA53E0BE016F5F7F4FCE010A
:1022100003960E947A0B6093A2037093A3038093AA
:10222000A4039093A503FA82E9821C830B834EE9F1
:1022300053E0BE016F5F7F4FCE0103960E947A0B81
:1022400060939E0370939F038093A0039093A103D8
:102250000E941D0C0E94BA00BCCFDB018F939F939C
:102260000E947311BF91AF91A29F800D911DA39FFA
:10227000900DB29F900D1124089597FB072E16F430
:10228000009407D077FD09D00E947E1107FC05D08D
:102290003EF4909581959F4F0895709561957F4F7D
:1022A0000895A1E21A2EAA1BBB1BFD010DC0AA1F97
:1022B000BB1FEE1FFF1FA217B307E407F50720F0AF
:1022C000A21BB30BE40BF50B661F771F881F991F2A
:1022D0001A9469F760957095809590959B01AC0173
:1022E000BD01CF0108950E949811A59F900DB49F44
:1022F000900DA49F800D911D11240895AA1BBB1B56
:1023000051E107C0AA1FBB1FA617B70710F0A61BF5
:10231000B70B881F991F5A95A9F780959095BC0116
:10232000CD010895EE0FFF1F0590F491E02D099463
:10233000A29FB001B39FC001A39F700D811D112406
:10234000911DB29F700D811D1124911D08950E9451
:10235000AE116894B1110C943D1208950E9422129E
:1023600088F09F5798F0B92F9927B751B0F0E1F056
:10237000660F771F881F991F1AF0BA95C9F714C006
:10238000B13091F00E943C12B1E008950C943C12DF
:10239000672F782F8827B85F39F0B93FCCF386953F
:1023A00077956795B395D9F73EF49095809570959C
:1023B00061957F4F8F4F9F4F0895E89409C097FB19
:1023C0003EF490958095709561957F4F8F4F9F4F0C
:1023D0009923A9F0F92F96E9BB279395F695879550
:1023E00077956795B795F111F8CFFAF4BB0F11F413
:1023F00060FF1BC06F5F7F4F8F4F9F4F16C08823BA
:1024000011F096E911C0772321F09EE8872F762FEF
:1024100005C0662371F096E8862F70E060E02AF030
:102420009A95660F771F881FDAF7880F969587951C
:1024300097F9089557FD9058440F551F59F05F3F85
:1024400071F04795880F97FB991F61F09F3F79F0D6
:1024500087950895121613061406551FF2CF469558
:10246000F1DF08C0161617061806991FF1CF8695DA
:102470007105610508940895E894BB2766277727BE
:10248000CB0197F908950E9456120C94C7120E942E
:10249000B91238F00E94C01220F0952311F00C946C
:1024A000B0120C94B61211240C943D120E941A1210
:1024B00070F3959FC1F3950F50E0551F629FF00197
:1024C000729FBB27F00DB11D639FAA27F00DB11DB0
:1024D000AA1F649F6627B00DA11D661F829F222739
:1024E000B00DA11D621F739FB00DA11D621F839FC0
:1024F000A00D611D221F749F3327A00D611D231F96
:10250000849F600D211D822F762F6A2F11249F57E3
:1025100050409AF0F1F088234AF0EE0FFF1FBB1FE6
:10252000661F771F881F91505040A9F79E3F5105A5
:1025300080F00C94B0120C943D125F3FE4F3983E8F
:10254000D4F3869577956795B795F795E7959F5F4F
:10255000C1F7FE2B880F911D9695879597F90895E1
:1025600097F99F6780E870E060E008959FEF80EC46
:10257000089500240A9416161706180609060895E9
:1025800000240A9412161306140605060895092E4F
:102590000394000C11F4882352F0BB0F40F4BF2BBE
:1025A00011F460FF04C06F5F7F4F8F4F9F4F0895FE
:1025B000A0E0B0E0EEEDF2E10C94D114EC01009754
:1025C00021F4CB010E94AC13B4C0FC01E60FF71F4D
:1025D0009C0122503109E217F30708F4A8C0D90181
:1025E0000D911C91119706171707B0F005301105D2
:1025F00008F49BC0C80104978617970708F495C094
:1026000002501109061B170B019311936D937C93D4
:10261000CF010E94441489C05B01A01AB10A4C0189
:10262000800E911EA0914207B0914307612C712C3E
:10263000E12CF12C109709F446C08D919C911197D3
:10264000A815B905B1F56C0142E0C40ED11CCA143D
:10265000DB0478F14C018A189B08640142E0C40E47
:10266000D11C1296BC9012971396AC91B5E0CB1684
:10267000D10440F0B282A38391828082D9016D930C
:102680007C9309C00E5F1F4F800F911FF90191834A
:102690008083EB2DFA2FE114F10431F0D70113966A
:1026A000FC93EE93129741C0F0934307E0934207E7
:1026B0003CC06816790608F43C017D0112960D9025
:1026C000BC91A02DB7CF809140079091410788160B
:1026D0009906E1F466167706C8F48091000190919E
:1026E0000101009741F48DB79EB7409104015091CC
:1026F0000501841B950BE817F907C8F4F09341070F
:10270000E0934007F901718360830FC0CB010E9401
:10271000AC137C01009759F0A801BE010E94A313DD
:10272000CE010E944414C70104C0CE0102C080E063
:1027300090E0CDB7DEB7EEE00C94ED1481E090E0D0
:10274000F8940C940415FB01DC0102C001900D9279
:1027500041505040D8F708950F931F93CF93DF93C4
:102760008230910510F482E090E0E0914207F09110
:10277000430720E030E0A0E0B0E0309719F140815D
:1027800051810281138148175907C8F084179507B2
:1027900069F4109731F012960C93129713961C93CC
:1027A00027C0009342071093430722C0211531052B
:1027B00019F04217530718F49A01BD01EF01DF0128
:1027C000F801DBCF21153105F9F0281B390B243036
:1027D000310580F48A819B816115710521F0FB012F
:1027E0009383828304C09093430780934207FE0142
:1027F000329644C0FE01E20FF31F81939193225061
:102800003109398328833AC020914007309141072C
:10281000232B41F4209102013091030130934107B1
:1028200020934007209100013091010121153105CD
:1028300041F42DB73EB74091040150910501241B8E
:10284000350BE0914007F0914107E217F307A0F440
:102850002E1B3F0B2817390778F0AC014E5F5F4FF6
:102860002417350748F04E0F5F1F509341074093E0
:1028700040078193919302C0E0E0F0E0CF01DF9147
:10288000CF911F910F910895CF93DF93009709F493
:1028900081C0FC01329713821282A0914207B0914D
:1028A0004307109781F420813181820F931F20917B
:1028B0004007309141072817390751F5F093410738
:1028C000E093400767C0ED0120E030E0CE17DF075E
:1028D00040F44A815B819E0141155105F1F0EA0106
:1028E000F5CFD383C28340815181840F951FC817D0
:1028F000D90759F488819981840F951F0296918395
:1029000080838A819B81938382832115310529F4F9
:10291000F0934307E09342073DC0E901FB83EA835C
:1029200049915991C40FD51FEC17FD0761F48081BF
:102930009181840F951F0296E90199838883828192
:1029400093819B838A83E0E0F0E012968D919C91C5
:102950001397009719F0FD01DC01F7CF8D919C9141
:1029600011979D012E5F3F4F820F931F20914007CB
:10297000309141072817390769F4309729F41092EC
:1029800043071092420702C013821282B09341079C
:10299000A0934007DF91CF9108952F923F924F92DD
:1029A0005F926F927F928F929F92AF92BF92CF92DF
:1029B000DF92EF92FF920F931F93CF93DF93CDB7E8
:1029C000DEB7CA1BDB0B0FB6F894DEBF0FBECDBF60
:1029D00009942A88398848885F846E847D848C8431
:1029E0009B84AA84B984C884DF80EE80FD800C813A
:1029F0001B81AA81B981CE0FD11D0FB6F894DEBF1D
:0C2A00000FBECDBFED010895F894FFCF8C
:102A0C00000044072000726F7373657269616C5F1C
:102A1C006D7367732F526571756573745061726154
:102A2C006D0000000000BA09FD01FA01F701000079
:102A3C000000EC09590256025302000000009303F7
:102A4C004D034A034703000000005A0D110D3F0DC2
:102A5C00A70DAE008C00A00000000000E108B70339
:102A6C00F401F10100000000C9007205C40000006F
:102A7C000000E601C20170016D0100000000580D5C
:102A8C00580D580D580D00000000D1017301700154
:102A9C006D014D6573736167652066726F6D20649F
:102AAC0065766963652064726F707065643A206D39
:102ABC00657373616765206C6172676572207468F9
:102ACC00616E206275666665722E003164663739F8
:102ADC006564663230386236323966653662383152
:102AEC003932336135343435353264007374645F94
:102AFC006D7367732F55496E7431360039663065C6
:102B0C00393862646136353938313938366464663F
:102B1C003533616661376134306534390031316188
:102B2C00626437333163323539333332363163646F
:102B3C003631383362643132643632393500726F73
:102B4C007373657269616C5F6D7367732F4C6F671C
:102B5C000030616435316638386663343438393264
:102B6C0066386331303638343037373634363030B7
:102B7C003500726F7373657269616C5F6D73677327
:102B8C002F546F706963496E666F0063643731361A
:102B9C0036633734633535326333313166626363A0
:102BAC003266653561376263323839007374645F3D
:102BBC006D7367732F54696D650062616E67626136
:042BCC006E67000030
:00000001FF
