:100000000C9463000C948B000C948B000C948B006C
:100010000C948B000C948B000C948B000C94830B31
:100020000C948B000C948B000C948B000C94370C6C
:100030000C948B000C948B000C948B000C948B0014
:100040000C946F100C948B000C94050C0C94DF0B2B
:100050000C948B000C948B000C948B000C948B00F4
:100060000C948B000C948B000200000000230026EF
:1000700000290000000000240027002A00000000E2
:1000800000250028002B00040404040404040402D6
:100090000202020202030303030303010204081025
:1000A00020408001020408102001020408102000F2
:1000B0000000080002010000030407000000000027
:1000C000000000004B1B11241FBECFEFD8E0DEBFA5
:1000D000CDBF12E0A0E0B1E0ECE6F2E402C0059092
:1000E0000D92A43CB107D9F727E0A4ECB2E001C01F
:1000F0001D92A237B207E1F710E0C3E6D0E004C0DA
:100100002197FE010E94BA1CC236D107C9F70E948E
:10011000FE100C9434210C940000CF92DF92EF92E9
:10012000FF920F931F93CF93DF936C017A018B01A2
:10013000C0E0D0E0CE15DF0581F0D8016D918D01D2
:10014000D601ED91FC910190F081E02DC601099559
:10015000892B11F02196EECF7E01C701DF91CF915F
:100160001F910F91FF90EF90DF90CF900895089529
:1001700080E090E00895FC01538D448D252F30E000
:10018000842F90E0821B930B541710F0CF960895A4
:1001900001970895FC01918D828D981761F0828DF1
:1001A000DF01A80FB11D5D968C91928D9F5F9F73AB
:1001B000928F90E008958FEF9FEF0895FC01918D4D
:1001C000828D981731F0828DE80FF11D858D90E0BA
:1001D00008958FEF9FEF0895FC01918D228D892F57
:1001E00090E0805C9F4F821B91098F73992708953F
:1001F00087ED93E00E94EC0021E0892B09F420E0D8
:10020000822F0895FC01848DDF01A80FB11DA35A30
:10021000BF4F2C91848D90E001968F739927848F26
:10022000A689B7892C93A089B1898C918370806449
:100230008C93938D848D981306C00288F389E02DEA
:1002400080818F7D80830895EF92FF920F931F939B
:10025000CF93DF93EC0181E0888F9B8D8C8D981379
:1002600005C0E889F989808185FD26C0F62E0B8DB1
:1002700010E00F5F1F4F0F731127E02E8C8DE812D7
:100280000CC00FB607FCFACFE889F989808185FF99
:10029000F5CFCE010E940201F1CF8B8DFE01E80F58
:1002A000F11DE35AFF4FF0829FB7F8940B8FEA8954
:1002B000FB89808180620AC09FB7F894EE89FF892C
:1002C0006083E889F98980818370806480839FBF1F
:1002D00081E090E0DF91CF911F910F91FF90EF901F
:1002E0000895CF93DF93EC01888D8823C9F0EA89C4
:1002F000FB89808185FD05C0A889B9898C9186FD1F
:100300000FC00FB607FCF5CF808185FFF2CFA8891B
:10031000B9898C9185FFEDCFCE010E940201E7CF14
:10032000DF91CF91089580E090E0892B29F00E9421
:10033000F80081110C94000008958A549D4FFC012F
:100340008081089583E991E0089584EB91E0089518
:10035000FC01848595850895AF92BF92CF92DF927C
:10036000EF92FF920F931F93CF93DF9300D000D0B3
:100370001F92CDB7DEB7643671053CF0FC01EA543C
:10038000FD4F2081222309F477C0DA017B018C0123
:10039000BC01695C7E4FED91FC910190F081E02DF4
:1003A000CA010995680120EDC21A2EEFD20A2FEF7B
:1003B000D6012C93F801EF5CFE4F2EEF208331968F
:1003C0008083319690833196292F280F20952083A2
:1003D0003196E0821696FC9245E050E020E030E055
:1003E000DC011696A417B50734F06191260F311D74
:1003F0004F5F5F4FF7CF7C01B8E0EB0EF11C800F31
:10040000911FFC01E95CFE4F20952083E9E1EE1687
:10041000E1E0FE06BCF45601C5018C199D098E155C
:100420009F056CF5D80112968D919C911397F5015B
:1004300061915F01DC01ED91FC910190F081E02D73
:100440000995EACF83E391E09A83898383E08B83E4
:1004500084EC91E09D838C83D801ED91FC91019017
:10046000F081E02DAE014F5F5F4F67E070E0C801A3
:1004700009958FEF9FEF04C080E090E001C0C701B5
:100480000F900F900F900F900F90DF91CF911F91D1
:100490000F91FF90EF90DF90CF90BF90AF900895B5
:1004A000CF92DF92EF92FF92FC01108211821282B2
:1004B0001382DB0120E030E04D9150E0022E02C0BB
:1004C000440F551F0A94E2F7052E000C660B770BBC
:1004D000C080D180E280F3804C295D296E297F297C
:1004E0004083518362837383285F3F4F20323105FD
:1004F00019F7FF90EF90DF90CF900895CF92DF92A1
:10050000EF92FF9220E030E06A017B01022E04C0EE
:10051000F694E794D794C7940A94D2F7FC01C19259
:10052000CF01285F3F4F2032310571F7FF90EF90E8
:10053000DF90CF900895FB01208130E0FC013383F0
:100540002283FB014181342BFC013383228382E02F
:1005500090E008950F931F93CF93DF938C01EC01EC
:100560002696CE010E949B02D8011A96ED91FC912D
:100570001B97CE01DF91CF911F910F910994FC0140
:100580002281FB012083FC018381FB01818382E0C6
:1005900090E008958DEF91E0089587E091E008954F
:1005A0008EE192E008958FE392E008954F925F927A
:1005B0006F927F928F929F92AF92BF92EF92FF9233
:1005C0000F931F93CF93DF9300D000D0CDB7DEB74A
:1005D0007C018B01FB018191BF01F7018283CE0178
:1005E00001960E94500289819A81AB81BC814C01A5
:1005F0005D01F5E08F0E911CA11CB11CA8014C5FA0
:100600005F4FFA0125E030E02901612C712C48147C
:1006100059046A047B0428F4618161932F5F3F4F82
:10062000F3CFF801E80FF91F1482F70154834383D5
:1006300005960F900F900F900F90DF91CF911F9123
:100640000F91FF90EF90BF90AF909F908F907F9011
:100650006F905F904F90089582E592E0089583E750
:1006600092E008954F925F926F927F928F929F9245
:10067000AF92BF92CF92DF92EF92FF920F931F93B0
:10068000CF93DF93CDB7DEB72C970FB6F894DEBFCC
:100690000FBECDBF7C018B01DB018C9190E0F70197
:1006A0009383828311962C91922B938382836E5F26
:1006B0007F4FCE0101960E94500289809A80AB80C4
:1006C000BC8024013501F6E04F0E511C611C711CE9
:1006D00098012B5F3F4FF90186E090E0AC0160E0AC
:1006E00070E0441555056605770520F44181419376
:1006F0000196F4CFF801E80DF91D1582D701159682
:100700003C932E931497B4016A5F7F4F600F711F63
:10071000CE0105960E945002BAE08B0E911C4D80CE
:100720005E806F807884A401092C000C660B770B27
:10073000440D551D661D771DD801A80DB91DCD01AD
:10074000801B910B5C01C12CD12CA416B506C606EA
:10075000D70628F48D91FD0132978083F0CF5401A4
:10076000A40CB51CB8016A0D7B1DFB0131971082EA
:10077000C4010197800F911FF70197838683CE01F3
:1007800009960E94500295012C5F3F4F89859A85FA
:10079000AB85BC852901032E000C66087708480E3E
:1007A000591E6A1E7B1EF5013396E00FF11FA90149
:1007B0004A01A12CB12C84149504A604B70428F492
:1007C000618161934F5F5F4FF3CF820F931FF801F9
:1007D000E80FF91FDF0111971C9221503109020F18
:1007E000131FD70119961C930E93189721814281EC
:1007F00050E060E070E0BA0155274427522B208179
:10080000422B2381722BF7014287538764877587B8
:1008100004962C960FB6F894DEBF0FBECDBFDF91C5
:10082000CF911F910F91FF90EF90DF90CF90BF90ED
:10083000AF909F908F907F906F905F904F900895B2
:100840008CE892E008958DEA92E00895FC01DB01C6
:100850004C9150E060E070E0428353836483758381
:1008600011968C911197582B42835383648375831F
:1008700012968C911297682B4283538364837583FD
:1008800013968C911397782B4283538364837583DB
:1008900014964C91149750E060E070E046835783C3
:1008A0006087718715968C911597582B46835783CF
:1008B0006087718716968C911697682B46835783AD
:1008C0006087718717968C91782B46835783608752
:1008D000718788E090E00895DC01FB0112968C910D
:1008E0001297808313968C911397818314968C9121
:1008F0001497828315968C911597838316968C9105
:100900001697848317968C911797858318968C91E8
:100910001897868319968C91878388E090E00895D4
:100920000E94CE1F2F923F924F925F926F927F92C2
:100930008F929F92AF92BF92CF92DF92EF92FF92EF
:100940000F931F93CF93DF93CDB7DEB760970FB6AA
:10095000F894DEBF0FBECDBF8C016B01DB018D9023
:100960009D90AD90BC90FC0182819381A481B58162
:1009700088159905AA05BB0570F4B401660F771FA9
:10098000660F771F828593850E94081FD8011B96EA
:100990009C938E931A97F80182829382A482B582E7
:1009A0009601812C912C540144E050E0B8016A5F1B
:1009B0007F4F2C5F3F4FF80182819381A481B581E5
:1009C000FA0134961F0188169906AA06BB0650F54F
:1009D000D9011196FC90119712968C9190E0A0E0AD
:1009E000B0E0DC01992788279F29F901F0808F2941
:1009F000F380BF29F80186839783A087B187DA0146
:100A0000A101149782859385A80FB91F84E0FB018B
:100A100001900D928A95E1F7FFEF8F1A9F0AAF0AB6
:100A2000BF0AC7CF4601840E951ED4018C91119642
:100A30009C91119712964C901297512C612C712C0D
:100A4000320155244424592A482A13968C91782A35
:100A50005F01F80184859585A685B7858415950580
:100A6000A605B70570F4B201660F771F660F771FF2
:100A7000848995890E94081FD80155969C938E936E
:100A80005497F8014486558666867786C401412CC2
:100A9000512C32019801205F3F4FD8011C964D9197
:100AA0005D916D917C911F97F50134964416550622
:100AB0006606770698F5DC011596FC901597169654
:100AC0004C91169750E060E070E0BA01552744273A
:100AD0005F291496FC9014974F291796FC907F2954
:100AE000D80150964D935D936D937C9353975F011E
:100AF000AC014819590954960D90BC91A02DA40F32
:100B0000B51F44E0F90101900D924A95E1F7BFEF5E
:100B10004B1A5B0A6B0A7B0A0496BFCFD601AA0D5B
:100B2000BB1D8C9111969C91119712968C901297E7
:100B3000912CA12CB12C540199248824992A882A1B
:100B400013968C91B82A7F01F80186899789A08D28
:100B5000B18D88159905AA05BB0560F4B401660F2F
:100B6000771F848D958D0E94081FD8015D969C93F8
:100B70008E935C97F801868A978AA08EB18E212C7D
:100B8000312C812C912C54019801265E3F4F3A87DD
:100B90002987F80186899789A08DB18D88169906D5
:100BA000AA06BB0608F05FC0B6016E0D7F1DCE0120
:100BB00001960E94500297012C5F3F4F388B2F8780
:100BC00049815A816B817C81C901330FAA0BBB0B10
:100BD0002C013D01440E551E661E771E4B865C8619
:100BE0006D867E8623E0E20EF11CF601EE0DFF1D00
:100BF0002F853889C901A0E0B0E04B845C846D8406
:100C00007E8484159505A605B70528F4A181A193D6
:100C10002F5F3F4FEFCF6F847888460D571DF60149
:100C2000E40FF51F31971082C30101978C0D9D1DB4
:100C3000D8015B969C938E935A977A015C96ED91BE
:100C4000FC915D97E20DF31DA985BA858D919C916C
:100C500091838083BFEF8B1A9B0AAB0ABB0AE2E049
:100C60002E0E311C96CFC70160960FB6F894DEBFEA
:100C70000FBECDBFDF91CF911F910F91FF90EF90ED
:100C8000DF90CF90BF90AF909F908F907F906F90AC
:100C90005F904F903F902F9008952F923F924F92E8
:100CA0005F926F927F928F929F92AF92BF92CF92FC
:100CB000DF92EF92FF920F931F93CF93DF93CDB705
:100CC000DEB7A6970FB6F894DEBF0FBECDBF8C017E
:100CD0000E942B104B015C01980125543D4F3E8B27
:100CE0002D8BF90180819181A281B381A5019401AD
:100CF000281B390B4A0B5B0BDA01C901893F9A4269
:100D0000A105B10510F035971082180144E5241AA9
:100D10004DEF340AD1018D919C91892B79F0F80126
:100D2000E154FD4F80819181A281B381881599059D
:100D3000AA05BB0518F4F1011182108298012C5408
:100D40003D4F3A8B298BA80140555D4F5C8B4B8BF7
:100D5000C8014896988F8F8BD801AA54BD4FBC8F7D
:100D6000AB8FF801EC53FD4FFE8FED8F215F3F4FAE
:100D700038A32F8F42505109588B4F8786569D4F6D
:100D80009A8F898F1996BAA3A9A3A50194012C5E05
:100D90003F4F4F4F5F4F2BA33CA34DA35EA3F801E2
:100DA00084899589A689B789892B8A2B8B2B81F415
:100DB000D80112968D919C911397DC01ED91FC91D5
:100DC0000284F385E02D09959C0197FF14C08FC222
:100DD0000E942B10DC01CB0188199909AA09BB09D3
:100DE000F801C488D588E688F788C816D906EA06C7
:100DF000FB06F0F6A3C2A989BA898D919C9111973F
:100E0000820F931F8D939C93F10140815181473054
:100E10005105D9F4A98DBA8D8D919C911197AC0192
:100E20004F5F5F4F4D935C93F801E80FF91F208FE0
:100E3000EF85F88980819181019791838083892B47
:100E400009F0ADCF88E090E032C04115510539F589
:100E50002F3F310589F481E090E0F1019183808397
:100E60002BA13CA14DA15EA1A9A1BAA12D933D93B7
:100E70004D935C93139793CF0E942B10DC01CB0111
:100E800088199909AA09BB0989389341A105B105B7
:100E900008F485CFF801EA54FD4F10824FC241306B
:100EA0005105A9F42E3F310531F482E090E0D101E3
:100EB0008D939C9374CFF10111821082AB8DBC8D08
:100EC0008C9181116CCFC8010E94371068CF4230DD
:100ED000510591F4EF85F88931832083A98DBA8D6E
:100EE0001D921C9283E090E0F10191838083A98997
:100EF000BA892D933C9353CF4330510569F4322F77
:100F00002227EF85F88980819181280F391F31834D
:100F1000208384E090E0CBCF4430510581F460E041
:100F200071E00E942E1C8F3F910531F485E090E026
:100F3000F1019183808333CF1182108230CF45300D
:100F4000510571F4EB89FC893183208386E090E0C0
:100F5000D1018D939C93E989FA89318320831FCF36
:100F600046305105A9F4322F2227AB89BC898D91D7
:100F70009C911197280F391F2D933C9387E090E0A7
:100F8000F10191838083AF85B8898D919C9157CF72
:100F90004830510509F003CFF1011182108260E061
:100FA00071E00E942E1C8F3F910509F0F8CEAB89AD
:100FB000BC898D919C91009709F0C8C0C8010E941E
:100FC000371087E291E09A8389831C821B828CEF21
:100FD00091E09E838D8398878F839A8789871B866C
:100FE0001C861D861E866801B8EBCB1ABDEFDB0A96
:100FF0007801E6E8EE1AEDEFFE0A28E1422E5524CC
:101000005394612C712CD601ED91FC913097A9F18C
:10101000848195819C838B83808191819E838D8344
:1010200082819381DC01ED91FC910480F581E02DBA
:10103000099598878F83D601ED91FC9182819381E8
:10104000DC01ED91FC910680F781E02D09959A87EE
:1010500089874B865C866D867E86D601ED91FC91F4
:1010600060857185D801ED91FC910190F081E02DB2
:10107000AE014F5F5F4FC8010995B2E0CB0ED11CA6
:10108000EC14FD0409F0BFCF98E1492E5524539488
:10109000612C712CF701A081B1811097E1F11296BA
:1010A0008D919C9113979C838B8314968D919C9129
:1010B00015979E838D83ED91FC9111970480F581A6
:1010C000E02DCD01099598878F83D7018D919C9153
:1010D000DC01ED91FC910680F781E02D09959A875E
:1010E00089874B865C866D867E86D801ED91FC9162
:1010F000C080D180F70180819181DC01ED91FC916C
:101100000280F381E02D0995AE014F5F5F4FBC0176
:10111000C801F6010995F2E0EF0EF11CE214F304A8
:1011200009F0B8CFF801EA54FD4F81E08083319691
:1011300080829182A282B382AD89BE898D929D9276
:10114000AD92BC9213978FEF9FEFFDC08A3091054F
:1011500009F0A2C08FE391E09A8389831B821C82ED
:101160001D821E821F82188619861A860E942B10E5
:10117000F801C084D184E284F3849B01AC012C1972
:101180003D094E095F0969017A016F89788DCE01A9
:1011900001960E942604C701B60128EE33E040E024
:1011A00050E00E94421CCB80DC80ED80FE80C20EAD
:1011B000D31EE41EF51ECB82DC82ED82FE829B01F3
:1011C000AC0160E472E48FE090E00E941E1CCF80CE
:1011D000D884E984FA84DC01CB018C0D9D1DAE1D01
:1011E000BF1D8F839887A987BA870E942B10CF8055
:1011F000D884E984FA8436E3D31A35E6E30A34EC7A
:10120000F30A28EE33E040E050E00E94421C29013E
:101210003A019B01AC0160E472E48FE090E00E942F
:101220001E1CA7019601261B370B480B590BCA0140
:10123000B901CB80DC80ED80FE8031E0C31AD1089B
:10124000E108F108A7019601241935094609570953
:1012500029013A0120E03AEC4AE95BE30E94421C92
:1012600073016201C20ED31EE41EF51ED8011C9646
:10127000CD92DD92ED92FC921F97F801608B718BFD
:10128000828B938B0E942B10AD89BE896D937D93C9
:101290008D939C93139783CD8630910559F46F8974
:1012A000788D8D8D9E8D0E94920481E0EF8DF8A146
:1012B000808375CD8B30910521F4AB8DBC8D1C9254
:1012C0006ECDFC01E752FF4FEE0FFF1FE00FF11F45
:1012D00080819181009709F462CDDC01ED91FC9150
:1012E0000190F081E02D6F89788D099558CDF80136
:1012F000EA54FD4F8081882321F17801B9E4EB1A8B
:10130000BDEFFB0AF70180819181A281B381A50124
:101310009401281B390B4A0B5B0BDA01C901853C90
:101320009940A105B10568F0C8010E943710D701A6
:101330008D929D92AD92BC92139703C08EEF9FEF5A
:1013400002C080E090E0A6960FB6F894DEBF0FBE14
:10135000CDBFDF91CF911F910F91FF90EF90DF9064
:10136000CF90BF90AF909F908F907F906F905F9045
:101370004F903F902F9008954F925F926F927F927F
:10138000AF92BF92CF92DF92EF92FF920F931F9393
:10139000CF93DF93EC018B018A81FB0180838B81EA
:1013A00081838C8182838D818383DB0140E050E0E7
:1013B000BA01E4E0F0E01496CA80DB80EC80FD80A6
:1013C000CF0104964C155D056E057F05C8F42A858E
:1013D0003B85E20FF31F3497D080F1803281238167
:1013E000DC921196FC92119712963C9312971396E9
:1013F0002C931397FC014F5F5F4F6F4F7F4FDBCFF5
:101400005F01A00EB11E2C85F50120832D8521835F
:101410002E8522832F852383D50140E050E0BA0139
:10142000CC84DD84EE84FF849C012C5F3F4F4C15FF
:101430005D056E057F05F8F4CD018A199B09EC88DE
:10144000FD888E0D9F1DFC01D080E180F28083819C
:101450001496DC9214971596EC9215971696FC92BA
:10146000169717968C931797C9014F5F5F4F6F4F71
:101470007F4F1496D5CFF801E80FF91F8E8980832E
:101480008F898183888D8283898D83837901A12CC3
:10149000B12C412C512C32018E899F89A88DB98D98
:1014A000481659066A067B0680F5EC8DFD8DEA0D1F
:1014B000FB1DA081B181FD0101900020E9F731976A
:1014C0006F01CA1ADB0AA60160E070E0C8018E0D48
:1014D0009F1D0E947E02F4E0EF0EF11CEC8DFD8D4D
:1014E000EA0DFB1D60817181A601C8018E0D9F1D53
:1014F0000E94D31FEC0CFD1C8FEF481A580A680A93
:10150000780AE2E0AE0EB11CC7CFC701DF91CF91E0
:101510001F910F91FF90EF90DF90CF90BF90AF9011
:101520007F906F905F904F900895EF92FF920F938E
:101530001F93CF93DF938C017B01DC0112962C91DA
:101540001297FB012193CF011396ED91FC91149713
:10155000EF0109900020E9F72197CE1BDF0BAE01C8
:1015600060E070E00E947E02D80113966D917C913C
:101570001497AE01C70105960E94D31FCE010596B0
:10158000DF91CF911F910F91FF90EF900895CF922F
:10159000DF92EF92FF920F931F93CF93DF937C0123
:1015A0008B01DC0112968C911297FB0180831396BC
:1015B0008C91139781831496ED91FC911597EF010F
:1015C00009900020E9F72197CE1BDF0BAE0160E008
:1015D00070E0C80102960E947E02D70114966D91B8
:1015E0007C911597AE01C80106960E94D31FCE01CB
:1015F0000696F701A681B781FD0101900020E9F769
:1016000031976F01CA1ADB0AA60160E070E0800F13
:10161000911F0E947E022A96D70116966D917C91A9
:101620001797A601C8018C0F9D1F0E94D31FCC0DD8
:10163000DD1DD7011896ED91FC911997DF010D90F2
:101640000020E9F711976D01CE1ADF0AA60160E0CC
:1016500070E0C8018C0F9D1F0E947E022496F70146
:1016600060857185A601C8018C0F9D1F0E94D31F44
:10167000C6018C0F9D1FD7011A966C911A971B9665
:101680004C911B971C963C911C971D962C91F80130
:10169000E80FF91F60834183328323830496DF912F
:1016A000CF911F910F91FF90EF90DF90CF90089511
:1016B00090910001891324C0E8E6F0E0E4919FEFE7
:1016C00090930001E130B9F098F0E230C9F49091C4
:1016D00070009D7F9093700091E09093B000909186
:1016E000B100987F94609093B1001092B30008C04D
:1016F00010926E0005C090916F009D7F90936F00D7
:1017000060E00C94270F1F920F920FB60F921124D6
:101710002F933F934F935F936F937F938F939F93F9
:10172000AF93BF93EF93FF938091C7029091C8024C
:10173000A091C902B091CA02892B8A2B8B2B51F13F
:101740009091C402E091C502F091C6028081892780
:1017500080838091C7029091C802A091C902B09184
:10176000CA02181619061A061B06C4F48091C7028D
:101770009091C802A091C902B091CA020197A10933
:10178000B1098093C7029093C802A093C902B09395
:10179000CA0204C0809100010E94580BFF91EF9192
:1017A000BF91AF919F918F917F916F915F914F9179
:1017B0003F912F910F900FBE0F901F9018951F9281
:1017C0000F920FB60F9211242F933F934F935F9375
:1017D0006F937F938F939F93AF93BF93EF93FF93F9
:1017E00087ED93E00E940201FF91EF91BF91AF91CD
:1017F0009F918F917F916F915F914F913F912F9129
:101800000F900FBE0F901F9018951F920F920FB65A
:101810000F9211242F938F939F93EF93FF93E09157
:10182000E703F091E8038081E091ED03F091EE038E
:1018300082FD12C090818091F0038F5F8F732091A1
:10184000F103821751F0E091F003F0E0E952FC4F10
:10185000958F8093F00301C08081FF91EF919F915C
:101860008F912F910F900FBE0F901F9018951F9280
:101870000F920FB60F9211242F933F934F935F93C4
:101880006F937F938F939F93AF93BF93CF93DF9388
:10189000EF93FF932091060330E0F901E155FF4FEC
:1018A0008491F901E556FF4FD491F901E957FF4FB3
:1018B000C491CC2379F081110E94FE0EEC2FF0E050
:1018C000EE0FFF1FE759FF4FA591B491EC91ED2367
:1018D00081E009F480E020910A0330910B032F5F2F
:1018E0003F4F30930B0320930A03909109039536E1
:1018F00018F096E090930503909105039430C9F198
:1019000028F4923069F09330D1F05EC0953009F43C
:1019100051C0963009F058C091E09093D60351C061
:10192000811152C020910A0330910B0324363105F6
:1019300008F442C01092D603109209031CC08130F3
:1019400009F042C0E091090391E09E0F90930903D2
:10195000F0E020910A0330910B03EE0FFF1FEB5FC5
:10196000FC4F3087278310920B0310920A0394E0F8
:1019700029C0811117C0E091090391E09E0F909357
:101980000903F0E020910A0330910B03EE0FFF1FD3
:10199000EB5FFC4F3087278310920B0310920A03F2
:1019A00093E010C020910A0330910B0325363105D6
:1019B00058F007C0811108C010920B0310920A035F
:1019C00003C095E090930503909108039923B9F023
:1019D00081110AC080910703882321F080910703B9
:1019E00061E009C02D9A0BC080910703882331F074
:1019F0008091070360E00E94270F01C02D98FF919E
:101A0000EF91DF91CF91BF91AF919F918F917F9196
:101A10006F915F914F913F912F910F900FBE0F905B
:101A20001F901895CF92DF92EF92FF92CF93DF93A2
:101A3000EC01072E000C880B990B0E94EB1D6B012B
:101A40007C0120E030E040E45FE30E949B1E20E048
:101A500030E048E452E40E94411D0E94B31DC617C5
:101A6000D707D4F020E030E040EA5FE3C701B601D9
:101A70000E949B1E20E030E048E452E40E94411D99
:101A800020E030E040E85FE30E94D01C0E94B31DDC
:101A900021E06C177D070CF420E0822F90E0DF91AD
:101AA000CF91FF90EF90DF90CF900895CF92DF928B
:101AB000EF92FF920F931F93CF93DF938C017B01E3
:101AC000EA0160E0FC0180810E94270F83E090E042
:101AD0000197F1F761E0F80180810E94270F83E20E
:101AE00090E00197F1F760E0F80180810E94270FF4
:101AF000F701808191819927FC01E556FF4F6491A0
:101B0000FC01E957FF4FE491F0E0EE0FFF1FE759AA
:101B1000FF4F8591949100E412E42FE030E0462FCE
:101B20000E94B910611571058105910549F0DC012C
:101B3000CB010196A11DB11DBC01CD019F7003C059
:101B400060E070E0CB016093F1027093F202809349
:101B5000F3029093F402C090ED02D090EE02E09078
:101B6000EF02F090F002C882D982EA82FB820E94E2
:101B7000EB1D26E933E44BE05DE30E949B1E20E071
:101B800030E040E05FE30E949B1E0E94B31D8B018A
:101B90009C010C191D092E093F0904361105210568
:101BA000310574F46835F2E07F078105910544F44E
:101BB0006093ED027093EE028093EF029093F00237
:101BC0006091ED027091EE028091EF029091F0022F
:101BD000DF91CF911F910F91FF90EF90DF90CF9009
:101BE000089560E08AE00E94270F60E089E00C948D
:101BF000270F6FEF70E089E00E94920F6AEF70E0AC
:101C00008AE00E94920F61E088E00E94270F60E066
:101C100087E00E94270F61E082E00E94270F60E0CA
:101C200084E00C94270F6AEF70E08AE00E94920F24
:101C300061E082E00E94270F60E084E00E94270FAD
:101C40006FEF70E089E00E94920F60E088E00E94F0
:101C5000270F61E087E00C94270F6AEF70E08AE0BD
:101C60000E94920F60E082E00E94270F61E084E012
:101C70000E94270F60E089E00C94270F61E08AE062
:101C80000E94270F61E082E00E94270F60E084E05D
:101C90000E94270F60E089E00C94270FFC018281ED
:101CA00093818130910511F40C943E0E82309105A0
:101CB00011F40C94F90D039711F40C94130E0C9479
:101CC000F10D3FB7F89480916A0790916B07A0914E
:101CD0006C07B0916D0726B5A89B05C02F3F19F082
:101CE0000196A11DB11D3FBFBA2FA92F982F88279C
:101CF000820F911DA11DB11DBC01CD0142E0660FF7
:101D0000771F881F991F4A95D1F708958F929F9248
:101D1000AF92BF92CF92DF92EF92FF920F931F93F9
:101D2000CF93DF93FC0120813181E0910103F09199
:101D300002032E173F070CF04FC0F901EE0FFF1FF3
:101D4000A091FF02B0910003EA0FFB1FA080B180B9
:101D5000217033276901F1E0CF26232B19F42CE9F8
:101D60003FEF02C024E630E07A018B01EC0149012B
:101D7000840E951EB401C5010E94120D892B99F4A1
:101D80008E0C9F1CB401C5010E94120D892B71F4A9
:101D9000B701680D791DC5010E94120D892BF9F05C
:101DA00023E030E005C021E030E002C022E030E076
:101DB000F801808191810196821793071CF4918329
:101DC000808308C0F8011182108288819981019670
:101DD00099838883C60105C081E090E002C08FEF3F
:101DE0009FEFDF91CF911F910F91FF90EF90DF90C8
:101DF000CF90BF90AF909F908F900895833081F0E7
:101E000028F4813099F08230A1F008958730A9F04C
:101E10008830B9F08430D1F4809180008F7D03C088
:101E2000809180008F7780938000089584B58F77AC
:101E300002C084B58F7D84BD08958091B0008F77F6
:101E400003C08091B0008F7D8093B00008951F93F0
:101E5000CF93DF93282F30E0F901E155FF4F8491B4
:101E6000F901E556FF4FD491F901E957FF4FC491AD
:101E7000CC23C1F0162F81110E94FE0EEC2FF0E052
:101E8000EE0FFF1FE358FF4FA591B4919FB7F89451
:101E9000111104C08C91D095D82302C0EC91DE2B97
:101EA000DC939FBFDF91CF911F910895CF93DF9374
:101EB00090E0FC01E556FF4F2491FC01E957FF4FEC
:101EC0008491882361F190E0880F991FFC01ED58FF
:101ED000FF4FC591D491FC01E358FF4FA591B491F8
:101EE000611109C09FB7F894888120958223888367
:101EF000EC912E230BC0623061F49FB7F894888177
:101F0000322F309583238883EC912E2B2C939FBF07
:101F100006C08FB7F894E8812E2B28838FBFDF91FE
:101F2000CF9108951F93CF93DF93182FEB0161E0BA
:101F30000E94560F209711F460E004C0CF3FD105F6
:101F400039F461E0812FDF91CF911F910C94270F1D
:101F5000E12FF0E0E155FF4FE491E330F9F048F470
:101F6000E130B9F0E230A1F584B5806284BDC8BD2E
:101F700034C0E730E9F0E83019F1E43049F58091F8
:101F80008000806280938000D0938B00C0938A0091
:101F900024C084B5806884BDC7BD1FC08091800007
:101FA000806880938000D0938900C093880015C01A
:101FB0008091B00080688093B000C093B3000DC0E2
:101FC0008091B00080628093B000C093B40005C0DF
:101FD000C038D1050CF0B5CFAFCFDF91CF911F91B5
:101FE00008958F929F92AF92BF92CF92DF92EF921D
:101FF000FF926B017C010E94610E4B015C01C114D8
:10200000D104E104F104F1F00E94610EDC01CB0186
:1020100088199909AA09BB09883E9340A105B10511
:1020200070F321E0C21AD108E108F10888EE880EA9
:1020300083E0981EA11CB11CC114D104E104F10479
:1020400019F7DDCFFF90EF90DF90CF90BF90AF906A
:102050009F908F9008952FB7F894609166077091C4
:10206000670780916807909169072FBF08950F93C4
:102070001F93CF93DF93CDB7DEB72A970FB6F894AF
:10208000DEBF0FBECDBF8C018FE391E09A838983C1
:102090001B821C821D821E821F82188619861A8648
:1020A000D801ED91FC910190F081E02DAE014F5FE0
:1020B0005F4F6AE070E0C80109950E942B10F8019B
:1020C00060877187828793872A960FB6F894DEBF60
:1020D0000FBECDBFDF91CF911F910F9108951F9239
:1020E0000F920FB60F9211242F933F938F939F93CC
:1020F000AF93BF938091660790916707A09168079F
:10210000B09169073091650723E0230F2D3720F444
:102110000196A11DB11D05C026E8230F0296A11D41
:10212000B11D209365078093660790936707A0937E
:102130006807B093690780916A0790916B07A09137
:102140006C07B0916D070196A11DB11D80936A07C0
:1021500090936B07A0936C07B0936D07BF91AF91FD
:102160009F918F913F912F910F900FBE0F901F90D5
:102170001895CF92DF92EF92FF920F931F93E82F63
:10218000F92F05C0015011092109310961F1908130
:1021900096239417B9F305C001501109210931099B
:1021A00011F1908196239413F7CFC12CD12CE12CFF
:1021B000F12C0AC08FEFC81AD80AE80AF80A0C15E1
:1021C0001D052E053F0579F080818623841791F344
:1021D0006C2D7D2D8E2D9F2D1F910F91FF90EF90D7
:1021E000DF90CF90089560E070E080E090E01F9174
:1021F0000F91FF90EF90DF90CF900895CF93DF93F2
:10220000CDB7DEB72C970FB6F894DEBF0FBECDBFAB
:10221000789484B5826084BD84B5816084BD85B5C1
:10222000826085BD85B5816085BD80916E008160CD
:1022300080936E0010928100809181008260809373
:102240008100809181008160809381008091800075
:102250008160809380008091B10084608093B100A0
:102260008091B00081608093B00080917A0084609A
:1022700080937A0080917A00826080937A008091C6
:102280007A00816080937A0080917A0080688093E0
:102290007A001092C100C0908704D0908804E0902A
:1022A0008904F0908A04009185041091860460E00E
:1022B00079E08DE390E0A70196010E94421CDA01CB
:1022C000C9010197A109B109B695A7959795879579
:1022D0009C01D8015096ED91FC91519782E080834A
:1022E000C114B1EEDB06E104F10421F02115E0E1B7
:1022F0003E07C0F0D8015096ED91FC9151971082A5
:1023000060E874E88EE190E0A70196010E94421C0B
:10231000DA01C9010197A109B109B695A795979569
:1023200087959C01D8011C96ED91FC911D973083F7
:102330001E96ED91FC911F97208358961C925897FA
:102340005496ED91FC91559786E080835296ED91DD
:10235000FC9153978081806180835296ED91FC912E
:1023600053978081886080835296ED91FC915397BA
:102370008081806880835296ED91FC915397808193
:102380008F7D80831092300710922F0710923207B2
:1023900010923107109236071092350710923407C9
:1023A00010923307EDEFF6E080E090E0219131915B
:1023B000232B81F4FC01EE0FFF1FE350F94F24E7BC
:1023C00034E0318320838C599F4F9093770480931E
:1023D000760404C001968931910541F761E082E0FD
:1023E0000E94560F61E084E00E94560F61E08AE08F
:1023F0000E94560F61E089E00E94560F61E088E07C
:102400000E94560F61E087E00E94560F61E08FE066
:102410000E94560F61E08DE00E94560F61E080E15E
:102420000E94560F61E085E00E94560F60E08CE04C
:102430000E94560F60E086E00E94560F60E083E045
:102440000E94560F8FE00E94580B0E94F10DF894E5
:102450001092800089E08093810080E293E0909365
:10246000890080938800109285001092840082E099
:1024700080936F00789480930503109209038091F4
:10248000060360E00E94560F93E0292E312C44246D
:102490004A94542C320183E894E00E944D0664E093
:1024A00070E080E090E00E94F10FECE0F0E0FA8351
:1024B000E9832DE030E03C832B8349EE52E0BE01FE
:1024C0006F5F7F4FCE0103960E94560D6093E90225
:1024D0007093EA028093EB029093EC0286E090E026
:1024E0009A838983A0E1B0E0BC83AB8345EE52E0E0
:1024F000BE016F5F7F4FCE0103960E94560D609321
:10250000E5027093E6028093E7029093E8023A8234
:102510002982E5E0F0E0FC83EB8341EE52E0BE016E
:102520006F5F7F4FCE0103960E94560D6B017C01B9
:102530006093E1027093E2028093E3029093E402DD
:102540000091E9021091EA022091EB023091EC0235
:102550008091E5029091E602A091E702B091E80235
:10256000B901A80180179107A207B30714F4AC01C1
:10257000BD014C155D056E057F05B4F408171907FC
:102580002A073B074CF4002737FD03951127222724
:102590003327802F0C943F1B8827B7FD83959927FD
:1025A000AA27BB270C943F1B40E050E0BA011C1443
:1025B0001D041E041F0414F4B701A6014093DD029C
:1025C0005093DE026093DF027093E00287ED93E0A8
:1025D0000E94EC00892BE9F087ED93E00E94CA008D
:1025E0008C3691F03CF4823661F0863691F40E948C
:1025F0003E0E0FC0823759F0833759F40E94F10D17
:1026000008C00E942D0E05C00E94130E02C00E9439
:10261000F90D2CE033E0309300032093FF0280910A
:10262000090390E090930203809301038091D60305
:1026300090E0909304038093030380910503853019
:1026400009F083C180910E0390910F03885891097E
:102650008D35910588F480910903843041F480918F
:102660001003909111038097479708F484C28091DA
:102670000903843408F066C2809109038A3108F4A2
:102680005BC080910C0390910D03843F914068F4EE
:102690001092FE021092FD024092F9025092FA024C
:1026A0006092FB027092FC0244C080910E039091F4
:1026B0000F0385974B9708F03FC0E2E1F3E082E01B
:1026C00090E0C12CD12C7601AC014F5F5F4F20917F
:1026D000090330E0421753075CF4DF0112972D9194
:1026E0003C91275031092730310508F48CC2CA01CA
:1026F0000197959587959093FE028093FD020C9724
:102700002CF41092FE021092FD0216C0C092F90243
:10271000D092FA02E092FB02F092FC0284E090E098
:1027200094C0C092F902D092FA02E092FB02F092B9
:10273000FC028BE090E089C0809109038A3180F02F
:1027400080910C0390910D038032934008F4A0CF48
:1027500080910E0390910F03C697869708F470C27C
:1027600080910903823230F180910E0390910F0322
:1027700006970797F8F4E2E1F3E082E090E0C12CDD
:10278000D12C76019C012F5F3F4F4091090350E00F
:10279000241735070CF4A2C201979595879590935D
:1027A000FE028093FD0240970CF0B4C21092FE022C
:1027B0001092FD021C821B8281E090E09A83898343
:1027C000809109038D3008F4CBC249E753E0BE0184
:1027D0006D5F7F4FCE0101960E94860E892B09F016
:1027E000BFC249E753E0BE016D5F7F4FCE01019646
:1027F0000E94860E019709F0B3C249E753E0BE017B
:102800006D5F7F4FCE0101960E94860E892B09F0E5
:10281000A7C2812C912C540100E010E080910903A3
:1028200090E029813A81281739070CF47EC2109371
:10283000FE020093FD028092F9029092FA02A092A9
:10284000FB02B092FC0281E090E09093F60280934C
:10285000F5020E942B106093D9027093DA028093E4
:10286000DB029093DC028091F9029091FA02A09130
:10287000FB02B091FC028093D5029093D602A09304
:10288000D702B093D80222E02093050310920903E7
:102890008735E8EA9E07EFEFAE07B10509F444C0BB
:1028A000E0F48D3F22E092072FEFA207B10509F473
:1028B00044C030F48B3B9D41A145B10591F166C008
:1028C0008D3DF2E29F07FFEFAF07B10581F18D3932
:1028D0009246AF4FB10529F159C08F3134ED9307BE
:1028E00033EAA30732E5B30711F168F48D33F2EC54
:1028F0009F07FFEFAF07B105E9F08B3B9D44AE4F5B
:10290000B042C1F043C08B3D3DEE930738ECA307C6
:1029100033EAB30749F08B319B44A84EB74D69F0B9
:1029200035C00E943E0E32C00E942D0E2FC00E9464
:10293000130E2CC00E94F90D29C00E94F10D26C073
:1029400082E080930503109209030E942B100091EE
:10295000D9021091DA022091DB023091DC02DC0115
:10296000CB01801B910BA20BB30B853F9140A105BE
:10297000B10560F00E94F10D0E942B106093D90206
:102980007093DA028093DB029093DC028091DD0287
:102990009091DE02A091DF02B091E0020397A109BD
:1029A000B1094B97A105B10508F0C9C00E94F10D0E
:1029B000809100018F3021F08F3F09F0B1C004C039
:1029C000E8E6F0E0149172C08FE080930001E8E641
:1029D000F0E0E491EF3F09F4A3C0E13009F443C013
:1029E00048F1E23009F061C01092B0001092B100DD
:1029F0008091B00082608093B0008091B1008160CE
:102A00008093B100E6E9F0E0E491F0E0EE0FFF1F03
:102A1000E358FF4F859194919093C6028093C5022D
:102A2000EAEAF0E0E491E093C40261E08FE00E9402
:102A3000560F1DC614BC15BC84B5826084BD85B517
:102A4000816085BDE6E9F0E0E491F0E0EE0FFF1F64
:102A5000E358FF4F85919491EAEAF0E0E491E09326
:102A6000CC0210E025C0109280001092810080916D
:102A700081008860809381008091810081608093D3
:102A80008100E6E9F0E0E491F0E0EE0FFF1FE3588B
:102A9000FF4F85919491EAEAF0E0E491E093CB0254
:102AA00061E08FE00E94560F0FC01E2F17FD38C047
:102AB00061E08FE00E94560F112309F4C4C5123063
:102AC00009F4D5C51130D1F480918100887F8160EF
:102AD000809381008FE79EE3909389008093880024
:102AE0004092CD025092CE026092CF027092D002FC
:102AF00080916F00826080936F0012C0123081F469
:102B00008FE78093B3004092C7025092C802609250
:102B1000C9027092CA028091700082608093700036
:102B200068EE73E080E090E00E94F10F8FE00E9479
:102B3000580B68EB7BE080E090E00E94F10F0E9470
:102B40009301A9CC809110039091110382549109B3
:102B50008E9708F091CD80E090E040E050E0BA011F
:102B6000FC01EE5EFC4F2081318129503109293072
:102B70003105B0F081CD8091120390911303099734
:102B8000099708F074CD1092FE021092FD02409257
:102B9000F9025092FA026092FB027092FC0221C08C
:102BA000FC01EC5EFC4F208131812751310922313B
:102BB0003105E0F4440F551F661F771F41600496EE
:102BC0008038910569F680E290E09093FE02809350
:102BD000FD024093F9025093FA026093FB02709356
:102BE000FC023092F6022092F50233CE2081318130
:102BF000265031092730310508F03ECD440F551FCE
:102C0000661F771FDCCF20813181235131092F309E
:102C1000310548F4CC0CDD1CEE1CFF1C6894C0F898
:102C20000296349651CD208131812A5031092930C4
:102C3000310508F081CDCC0CDD1CEE1CFF1CF0CF63
:102C40008091100390911103C697869708F088CD64
:102C5000E4E1F3E083E090E0C12CD12C7601AC01FB
:102C60004F5F5F4F2091090330E04217530754F440
:102C7000DF0112972D913C912C5031092B303105F9
:102C800080F0CA010197959587959093FE028093F5
:102C9000FD020C970CF045CD1092FE021092FD0241
:102CA0005FCD20813181255231092B31310548F426
:102CB000CC0CDD1CEE1CFF1C6894C0F80296349608
:102CC000CECF208131812C5031092A30310508F0D6
:102CD00047CDCC0CDD1CEE1CFF1CF0CFDF011297A2
:102CE0004D915C9111974E5151094731510508F0B2
:102CF00081C0CC0CDD1CEE1CFF1C6894C0F8408128
:102D000051813496435051094530510508F47FC034
:102D1000C90142CDC092F902D092FA02E092FB02C0
:102D2000F092FC02ECE0F0E060C049E753E0BE0145
:102D30006D5F7F4FCE0101960E94860E7C0149E7B0
:102D400053E0BE016D5F7F4FCE0101960E94860E5B
:102D5000F1E0EF16F10409F45CC0EF2809F463C058
:102D60001C821B8281E090E09A8389838091010319
:102D700090910203181619060CF45FC0E091FF024F
:102D8000F091000382819381C697869708F470C101
:102D900080910903893308F05FC080910903823272
:102DA00009F063C0828193810A97099708F05DC09A
:102DB00020910903CF01820F911D820F911DDC012B
:102DC00012978D919C910A97099708F04EC0109226
:102DD000FE021092FD024092F9025092FA026092B5
:102DE000FB027092FC02E6E0F0E0F093F602E09362
:102DF000F5022FCD4D915C914C5051094B3051054E
:102E000008F0D8CCCC0CDD1CEE1CFF1C78CF029651
:102E1000B9CC892B09F0A4CF880C991CAA1CBB1C27
:102E2000689480F807C0019709F09ACF880C991C24
:102E3000AA1CBB1C0F5F1F4FF1CCE091FF02F09169
:102E4000000382E090E09A8389838281938189974D
:102E50004E9708F47EC092CF828193818957910961
:102E60008335910508F45CC198CF8281938189579D
:102E7000910983359105D0F4809109038132B0F036
:102E800084819581CA97899788F49F012A5F3F4F73
:102E9000C12CD12C760143E050E0D9016D917C9199
:102EA0006A5071096930710508F499C18281938172
:102EB0008C549109C59778F480910903843031F4DA
:102EC000848195818097479708F4EFC18091090329
:102ED000843408F0D1C180910903863460F1828185
:102EE00093810C970B9708F42BC225C0D901129639
:102EF0006D917C9113976E5171096731710508F0DE
:102F000057C2D701C601880F991FAA1FBB1F6C01AA
:102F10007D016894C0F84E5F5F4F2C5F3F4F453492
:102F2000510509F428C2D9016D917C916C50710949
:102F30006B307105D8F280910903883508F4A0C27E
:102F400082819381855891098B35910508F440C29F
:102F500097C23A822982848195810B970A9708F05B
:102F60000DCF4CEB51E0BE016D5F7F4FCE0101965E
:102F70000E94860E892B09F001CF4CEB51E0BE0177
:102F80006D5F7F4FCE0101960E94860E019709F07A
:102F9000F5CE812C912C540100E010E0209101032A
:102FA0003091020389819A81821793070CF051C0F6
:102FB0004CEB51E0BE016D5F7F4FCE0101960E9448
:102FC000860E7C010330110571F04CEB51E0BE011F
:102FD0006D5F7F4FCE0101960E94860E6C0103301B
:102FE0001105D9F40DC04CEB51E0BE016D5F7F4F70
:102FF000CE0101960E94860EE816F90631F3BECE88
:103000004CEB51E0BE016D5F7F4FCE0101960E94F7
:10301000860EC816D90609F0B1CEE114F10459F4B0
:10302000CA94CD2809F0AACE880C991CAA1CBB1CF6
:10303000689480F80BC0EA94EF2809F09FCECD2861
:1030400009F09CCE880C991CAA1CBB1C0F5F1F4F5B
:10305000A5CF1093FE020093FD028092F902909298
:10306000FA02A092FB02B092FC0282E090E0EDCB6B
:10307000848195814B97459708F08ACEDF0116969B
:103080007F0126ECE20EF11C20E030E040E050E051
:1030900060E070E080E090E00D911C911197095084
:1030A00011090830110508F073CE12960D911C918C
:1030B0001397015111090D30110520F501E00E940F
:1030C0006F1C21601496EA16FB0631F72093F90273
:1030D0003093FA024093FB025093FC0200E20E94FC
:1030E0008A1C2093F7023093F80285E090E09093D9
:1030F000F6028093F50280E390E09093FE028093C5
:10310000FD02A7CB12960D911C9113970450110943
:103110000530110508F03CCE01E00E946F1CD2CFB3
:1031200084819581CA97899708F037CE9F012A5FDD
:103130003F4FC12CD12C760143E050E0D9016D9175
:103140007C916A5071096930710508F026CED90169
:1031500012966D917C9113976651710961317105D9
:1031600070F5D701C601880F991FAA1FBB1F6C01FC
:103170007D016894C0F84E5F5F4F2C5F3F4F4B332B
:103180005105E1F69F012A583F4FD9012D913C91FD
:103190002A5031092930310508F0FFCD2CE130E00B
:1031A0003093FE022093FD02C092F902D092FA02FF
:1031B000E092FB02F092FC028AE090E046CBD9015B
:1031C00012966D917C911397665071096730710565
:1031D00008F0E3CDCC0CDD1CEE1CFF1CCCCFD901DC
:1031E00012966D917C911397665171096131710549
:1031F00098F5D701C601880F991FAA1FBB1F6C0144
:103200007D016894C0F84E5F5F4F2C5F3F4F4332A3
:10321000510509F042CE9F012A5B3F4FD9012D9104
:103220003C912A5031092930310508F03FCEE0E1C8
:10323000F0E0F093FE02E093FD02C092F902D0921A
:10324000FA02E092FB02F092FC0226E030E03093BA
:10325000F6022093F502FDCAD90112966D917C9178
:103260001397665071096730710508F01FCECC0CBA
:10327000DD1CEE1CFF1CC7CF848195818954910908
:10328000C39708F028CE9F012A5F3F4FBF016A57BE
:103290007F4FC12CD12C7601D9014D915C914950C1
:1032A000510949305105A0F016CE868197810997C2
:1032B000099708F00BCE1092FE021092FD02409288
:1032C000F9025092FA026092FB027092FC02E0C195
:1032D000D90112964D915C91139746515109413194
:1032E0005105F0F4D701C601880F991FAA1FBB1F13
:1032F0006C017D016894C0F82C5F3F4F261737079B
:1033000059F6E0E2F0E0F093FE02E093FD02C09295
:10331000F902D092FA02E092FB02F092FC02B8C1EC
:10332000D90112964D915C9113974650510947303F
:10333000510508F0D0CDCC0CDD1CEE1CFF1CDCCF01
:10334000848195810997099708F0F5CD8681978149
:103350008C974F9708F0EFCD8085918589974D9791
:1033600008F0E9CD9F01265F3F4FC12CD12C76019B
:1033700045E050E0D8CD9F0126573F4FD9012D9110
:103380003C912C5031092B30310508F0D4CDE0E2CE
:10339000F0E0F093FE02E093FD02C092F902D092B9
:1033A000FA02E092FB02F092FC0288E090E04DCA43
:1033B000D90112966D917C9113976950710969300A
:1033C000710508F0B8CDCC0CDD1CEE1CFF1CA3CDA4
:1033D00084819581825491098E9708F051C08F01A4
:1033E000045C1F4F8DE190E020E030E04091090344
:1033F00050E04450510984179507ACF4A80142509D
:103400005109DA014D915C914950510948305105FB
:1034100010F136C0D8014D915C91485151094231AB
:10342000510558F1CB010197959587959093FE0230
:103430008093FD028A9724F1C901330FAA0BBB0BBD
:103440008093F9029093FA02A093FB02B093FC02DE
:1034500089E090E0FAC9BC016F5F7F4FD8014D91C0
:103460005C914750510947305105A0F6220F331F98
:10347000216002960C5F1F4FB9CF220F331FF9CF87
:10348000809109038032E1F4828193810697069747
:10349000B8F4848195810997099790F49F012A5F78
:1034A0003F4FBF01625C7F4FC12CD12C7601D90107
:1034B0004D915C91465051094630510508F488C041
:1034C000209101033091020338872F832630310584
:1034D0000CF436CA8F010E5F1F4F35ECC32E3DE949
:1034E000D32E3CE1E32E31E8F32E83E090E09E837F
:1034F0008D83D80114966D917C911597AD90BC90F9
:1035000080E090E00E94E91D69877A878B879C871D
:10351000B50180E090E00E94E91D4B015C012DECBB
:103520003CEC4CE45FE30E949B1E9B01AC0169856F
:103530007A858B859C850E943C1D87FD19C02DECEA
:103540003CEC4CE45FE369857A858B859C850E9421
:103550009B1E9B01AC01C501B4010E943C1DE82FDC
:10356000880FFF0BEE27FF0FEE1FFF27319602C0DB
:10357000E0E0F0E0A701960163E971E080E091E00E
:103580000E941E1C6F01FF0FEE08FF08C626D726FB
:10359000E826F926ED81FE813196FE83ED830E5FEC
:1035A0001F4F2F813885E217F30709F0A2CFC09291
:1035B000F902D092FA02E092FB02F092FC0280E261
:1035C00090E09093FE028093FD028FEF9FEF3DC944
:1035D000D90112964D915C9113974951510943318C
:1035E000510508F5D701C601880F991FAA1FBB1FF7
:1035F0006C017D016894C0F82C5F3F4F2617370798
:1036000009F055CF2EE030E03093FE022093FD020A
:10361000C092F902D092FA02E092FB02F092FC0210
:103620008FE090E012C9D90112964D915C911397E9
:10363000495051094930510508F042CFCC0CDD1CEE
:10364000EE1CFF1CD9CF85B5887F836085BD89EFCF
:1036500087BD4092D1025092D2026092D302709202
:10366000D40280916E00826080936E0059CA80916E
:10367000B100887F84608093B10089EF42CA8823BB
:1036800011F40C94DE1240E050E0BA010C94DE120A
:1036900087E090E0DAC81092DA031092D90388EE3E
:1036A00093E0A0E0B0E08093DB039093DC03A09371
:1036B000DD03B093DE038BE491E09093D803809315
:1036C000D70385EC90E09093E4038093E30384ECCC
:1036D00090E09093E6038093E50380EC90E0909374
:1036E000E8038093E70381EC90E09093EA038093F2
:1036F000E90382EC90E09093EC038093EB0386EC7B
:1037000090E09093EE038093ED031092F0031092FB
:10371000F1031092F2031092F30389E691E0909383
:1037200084048093830487ED93E0909386048093D0
:10373000850480E091EEA0E0B0E080938704909350
:103740008804A0938904B0938A04109239078DE508
:1037500091E0909348078093470710924907109291
:103760004A0710924B0710924C0710925207109282
:103770005107109253071092540710925507109258
:10378000560710925C0710925B0710925D0710922B
:103790005E0710925F071092600710926407109204
:1037A0006307EDEFF6E0ABECB6E01D921D92EA1771
:1037B000FB07D9F78FE297E0119211928E179F07BE
:1037C000D9F7ABE9B4E0E3EBF5E01D92EA17FB07AC
:1037D000E1F7119286E0EB3CF807D9F710929704D5
:1037E000109298041092990410929A048BE080939E
:1037F0000603109208038BE891E090937504809380
:10380000740483E791E090937B0480937A04109290
:103810007D0410927C048EE49EE090937F0480935C
:103820007E0481E090E090938104809380048BEB90
:1038300092E090937904809378040895DB018F934C
:103840009F930E94641CBF91AF91A29F800D911D18
:10385000A39F900DB29F900D1124089597FB072E02
:1038600016F4009407D077FD09D00E94A61C07FC2F
:1038700005D03EF4909581959F4F08957095619580
:103880007F4F0895A1E21A2EAA1BBB1BFD010DC09C
:10389000AA1FBB1FEE1FFF1FA217B307E407F50700
:1038A00020F0A21BB30BE40BF50B661F771F881FDC
:1038B000991F1A9469F760957095809590959B0172
:1038C000AC01BD01CF0108950E94C01CA59F900DC1
:1038D000B49F900DA49F800D911D112408950F9306
:1038E000083090F0982F872F762F652F542F432F75
:1038F000322F22270850F4CF220F331F441F551FA9
:10390000661F771F881F991F0A95B2F70F910895B8
:1039100097FB10F8169400080F93083098F00850A1
:10392000232F342F452F562F672F782F892F902D37
:10393000F4CF059497958795779567955795479513
:10394000379527950A95AAF70F910895AA1BBB1BD7
:1039500051E107C0AA1FBB1FA617B70710F0A61B8F
:10396000B70B881F991F5A95A9F780959095BC01B0
:10397000CD010895EE0FFF1F0590F491E02D0994FD
:10398000A29FB001B39FC001A39F700D811D1124A0
:10399000911DB29F700D811D1124911D08955058E5
:1039A000BB27AA270E94E71C0C94611E0E94531E8D
:1039B00038F00E945A1E20F039F49F3F19F426F483
:1039C0000C94501E0EF4E095E7FB0C944A1EE92F70
:1039D0000E94721E58F3BA1762077307840795078F
:1039E00020F079F4A6F50C94941E0EF4E0950B2EBD
:1039F000BA2FA02D0B01B90190010C01CA01A00141
:103A00001124FF27591B99F0593F50F4503E68F19B
:103A10001A16F040A22F232F342F4427585FF3CFDC
:103A2000469537952795A795F0405395C9F77EF4AD
:103A30001F16BA0B620B730B840BBAF09150A1F0F6
:103A4000FF0FBB1F661F771F881FC2F70EC0BA0F7C
:103A5000621F731F841F48F4879577956795B79504
:103A6000F7959E3F08F0B0CF9395880F08F09927FF
:103A7000EE0F9795879508950E94261E08F481E021
:103A800008950E94551D0C94611E0E945A1E58F004
:103A90000E94531E40F029F45F3F29F00C944A1E07
:103AA00051110C94951E0C94501E0E94721E68F3C6
:103AB0009923B1F3552391F3951B550BBB27AA27E7
:103AC00062177307840738F09F5F5F4F220F331F21
:103AD000441FAA1FA9F335D00E2E3AF0E0E832D0E9
:103AE00091505040E695001CCAF72BD0FE2F29D0EC
:103AF000660F771F881FBB1F261737074807AB07BE
:103B0000B0E809F0BB0B802DBF01FF2793585F4F32
:103B10003AF09E3F510578F00C944A1E0C94951E85
:103B20005F3FE4F3983ED4F3869577956795B79514
:103B3000F7959F5FC9F7880F911D9695879597F91F
:103B40000895E1E0660F771F881FBB1F6217730798
:103B50008407BA0720F0621B730B840BBA0BEE1FAD
:103B600088F7E09508950E94BA1D6894B1110C94ED
:103B7000951E08950E947A1E88F09F5798F0B92FDD
:103B80009927B751B0F0E1F0660F771F881F991F92
:103B90001AF0BA95C9F714C0B13091F00E94941E82
:103BA000B1E008950C94941E672F782F8827B85F92
:103BB00039F0B93FCCF3869577956795B395D9F7EA
:103BC0003EF490958095709561957F4F8F4F9F4FF4
:103BD0000895E89409C097FB3EF490958095709500
:103BE00061957F4F8F4F9F4F9923A9F0F92F96E949
:103BF000BB279395F695879577956795B795F111BE
:103C0000F8CFFAF4BB0F11F460FF1BC06F5F7F4F5A
:103C10008F4F9F4F16C0882311F096E911C077236C
:103C200021F09EE8872F762F05C0662371F096E875
:103C3000862F70E060E02AF09A95660F771F881F44
:103C4000DAF7880F9695879597F90895990F0008E8
:103C5000550FAA0BE0E8FEEF16161706E807F9075E
:103C6000C0F012161306E407F50798F0621B730BF9
:103C7000840B950B39F40A2661F0232B242B252B7A
:103C800021F408950A2609F4A140A6958FEF811D1D
:103C9000811D089597F99F6780E870E060E00895BE
:103CA0009FEF80EC089500240A9416161706180654
:103CB0000906089500240A94121613061406050630
:103CC0000895092E0394000C11F4882352F0BB0FC1
:103CD00040F4BF2B11F460FF04C06F5F7F4F8F4F24
:103CE0009F4F089557FD9058440F551F59F05F3F5F
:103CF00071F04795880F97FB991F61F09F3F79F00E
:103D000087950895121613061406551FF2CF46958F
:103D1000F1DF08C0161617061806991FF1CF869511
:103D20007105610508940895E894BB2766277727F5
:103D3000CB0197F908950E94AE1E0C94611E0E945B
:103D4000531E38F00E945A1E20F0952311F00C9457
:103D50004A1E0C94501E11240C94951E0E94721E33
:103D600070F3959FC1F3950F50E0551F629FF001CE
:103D7000729FBB27F00DB11D639FAA27F00DB11DE7
:103D8000AA1F649F6627B00DA11D661F829F222770
:103D9000B00DA11D621F739FB00DA11D621F839FF7
:103DA000A00D611D221F749F3327A00D611D231FCD
:103DB000849F600D211D822F762F6A2F11249F571B
:103DC00050409AF0F1F088234AF0EE0FFF1FBB1F1E
:103DD000661F771F881F91505040A9F79E3F5105DD
:103DE00080F00C944A1E0C94951E5F3FE4F3983EBD
:103DF000D4F3869577956795B795F795E7959F5F87
:103E0000C1F7FE2B880F911D9695879597F9089518
:103E1000A0E0B0E0EEE0FFE10C940121EC0100979E
:103E200021F4CB010E94DC1FB4C0FC01E60FF71F98
:103E30009C0122503109E217F30708F4A8C0D90108
:103E40000D911C91119706171707B0F00530110559
:103E500008F49BC0C80104978617970708F495C01B
:103E600002501109061B170B019311936D937C935C
:103E7000CF010E94742089C05B01A01AB10A4C01D5
:103E8000800E911EA0917007B0917107612C712C6A
:103E9000E12CF12C109709F446C08D919C9111975B
:103EA000A815B905B1F56C0142E0C40ED11CCA14C5
:103EB000DB0478F14C018A189B08640142E0C40ECF
:103EC000D11C1296BC9012971396AC91B5E0CB160C
:103ED000D10440F0B282A38391828082D9016D9394
:103EE0007C9309C00E5F1F4F800F911FF9019183D2
:103EF0008083EB2DFA2FE114F10431F0D7011396F2
:103F0000FC93EE93129741C0F0937107E093700712
:103F10003CC06816790608F43C017D0112960D90AC
:103F2000BC91A02DB7CF80916E0790916F07881636
:103F30009906E1F466167706C8F480910101909124
:103F40000201009741F48DB79EB740910501509151
:103F50000601841B950BE817F907C8F4F0936F0767
:103F6000E0936E07F901718360830FC0CB010E945B
:103F7000DC1F7C01009759F0A801BE010E94D31FED
:103F8000CE010E947420C70104C0CE0102C080E0AF
:103F900090E0CDB7DEB7EEE00C941D2181E090E01B
:103FA000F8940C943421FB01DC0102C001900D92C5
:103FB00041505040D8F708950F931F93CF93DF934C
:103FC0008230910510F482E090E0E0917007F0916A
:103FD000710720E030E0A0E0B0E0309719F14081B7
:103FE00051810281138148175907C8F0841795073A
:103FF00069F4109731F012960C93129713961C9354
:1040000027C0009370071093710722C02115310556
:1040100019F04217530718F49A01BD01EF01DF01AF
:10402000F801DBCF21153105F9F0281B390B2430BD
:10403000310580F48A819B816115710521F0FB01B6
:104040009383828304C09093710780937007FE016D
:10405000329644C0FE01E20FF31F819391932250E8
:104060003109398328833AC020916E0730916F0758
:10407000232B41F4209103013091040130936F0709
:1040800020936E0720910101309102012115310525
:1040900041F42DB73EB74091050150910601241B14
:1040A000350BE0916E07F0916F07E217F307A0F46C
:1040B0002E1B3F0B2817390778F0AC014E5F5F4F7E
:1040C0002417350748F04E0F5F1F50936F0740933A
:1040D0006E078193919302C0E0E0F0E0CF01DF91A1
:1040E000CF911F910F910895CF93DF93009709F41B
:1040F00081C0FC01329713821282A0917007B091A7
:104100007107109781F420813181820F931F2091D4
:104110006E0730916F072817390751F5F0936F0735
:10412000E0936E0767C0ED0120E030E0CE17DF07B7
:1041300040F44A815B819E0141155105F1F0EA018D
:10414000F5CFD383C28340815181840F951FC81757
:10415000D90759F488819981840F951F029691831C
:1041600080838A819B81938382832115310529F481
:10417000F0937107E09370073DC0E901FB83EA8388
:1041800049915991C40FD51FEC17FD0761F4808147
:104190009181840F951F0296E9019983888382811A
:1041A00093819B838A83E0E0F0E012968D919C914D
:1041B0001397009719F0FD01DC01F7CF8D919C91C9
:1041C00011979D012E5F3F4F820F931F20916E0725
:1041D00030916F072817390769F4309729F4109246
:1041E00071071092700702C013821282B0936F079A
:1041F000A0936E07DF91CF9108952F923F924F9237
:104200005F926F927F928F929F92AF92BF92CF9266
:10421000DF92EF92FF920F931F93CF93DF93CDB76F
:10422000DEB7CA1BDB0B0FB6F894DEBF0FBECDBFE7
:1042300009942A88398848885F846E847D848C84B8
:104240009B84AA84B984C884DF80EE80FD800C81C1
:104250001B81AA81B981CE0FD11D0FB6F894DEBFA4
:0C4260000FBECDBFED010895F894FFCF14
:10426C00FF000072072000726F7373657269616CD6
:10427C005F6D7367732F52657175657374506172DE
:10428C00616D0000000000C70A32032F032C0300ED
:10429C00000000950AD602D302D002000000006C88
:1042AC00042604230420040000000024018D00BB1C
:1042BC00007101EC00CA00DE0000000000BC099295
:1042CC0004CD02CA0200000000AC014D069D0100A5
:1042DC00000000BF029B02A501A20100000000909B
:1042EC000490049004900400000000AA02A801A508
:1042FC0001A2013164663739656466323038623642
:10430C003239666536623831393233613534343599
:10431C00353264007374645F6D7367732F55496E27
:10432C00743136004D6573736167652066726F6D0D
:10433C00206465766963652064726F707065643A99
:10434C00206D657373616765206C6172676572209F
:10435C007468616E206275666665722E003966300F
:10436C0065393862646136353938313938366464C8
:10437C00663533616661376134306534390031310B
:10438C0061626437333163323539333332363163FA
:10439C006436313833626431326436323935007206
:1043AC006F7373657269616C5F6D7367732F4C6F9C
:1043BC0067003061643531663838666334343839B7
:1043CC00326638633130363834303737363436303D
:1043DC00303500726F7373657269616C5F6D7367F2
:1043EC00732F546F706963496E666F006364373165
:1043FC003636633734633535326333313166626355
:10440C0063326665356137626332383900737464C0
:10441C005F6D7367732F54696D650062616E6762BF
:04442C00616E670056
:00000001FF
